{
  "contractName": "CarSharing",
  "abi": [
    {
      "inputs": [
        {
          "internalType": "address",
          "name": "",
          "type": "address"
        }
      ],
      "name": "accountRes",
      "outputs": [
        {
          "internalType": "string",
          "name": "carNumber",
          "type": "string"
        },
        {
          "internalType": "string",
          "name": "date",
          "type": "string"
        }
      ],
      "stateMutability": "view",
      "type": "function",
      "constant": true
    },
    {
      "inputs": [
        {
          "internalType": "uint8",
          "name": "",
          "type": "uint8"
        }
      ],
      "name": "cars",
      "outputs": [
        {
          "internalType": "uint8",
          "name": "idx",
          "type": "uint8"
        },
        {
          "internalType": "address",
          "name": "owner",
          "type": "address"
        },
        {
          "internalType": "string",
          "name": "carNumber",
          "type": "string"
        },
        {
          "internalType": "uint8",
          "name": "dayOfWeek",
          "type": "uint8"
        },
        {
          "internalType": "uint32",
          "name": "rentalFee",
          "type": "uint32"
        },
        {
          "internalType": "uint32",
          "name": "drivingFee",
          "type": "uint32"
        },
        {
          "internalType": "string",
          "name": "modelName",
          "type": "string"
        },
        {
          "internalType": "string",
          "name": "location",
          "type": "string"
        },
        {
          "internalType": "uint64",
          "name": "registrationDate",
          "type": "uint64"
        }
      ],
      "stateMutability": "view",
      "type": "function",
      "constant": true
    },
    {
      "inputs": [
        {
          "internalType": "string",
          "name": "_carNumber",
          "type": "string"
        },
        {
          "internalType": "string",
          "name": "_modelName",
          "type": "string"
        },
        {
          "internalType": "uint8",
          "name": "_dayOfWeek",
          "type": "uint8"
        },
        {
          "internalType": "string",
          "name": "_location",
          "type": "string"
        },
        {
          "internalType": "uint32",
          "name": "_rentalFee",
          "type": "uint32"
        },
        {
          "internalType": "uint32",
          "name": "_drivingFee",
          "type": "uint32"
        },
        {
          "internalType": "uint64",
          "name": "_registrationDate",
          "type": "uint64"
        }
      ],
      "name": "addCar",
      "outputs": [],
      "stateMutability": "nonpayable",
      "type": "function"
    },
    {
      "inputs": [
        {
          "internalType": "uint8",
          "name": "_idx",
          "type": "uint8"
        }
      ],
      "name": "deleteCar",
      "outputs": [],
      "stateMutability": "nonpayable",
      "type": "function"
    },
    {
      "inputs": [
        {
          "internalType": "uint8",
          "name": "_idx",
          "type": "uint8"
        }
      ],
      "name": "getCar",
      "outputs": [
        {
          "components": [
            {
              "internalType": "uint8",
              "name": "idx",
              "type": "uint8"
            },
            {
              "internalType": "address",
              "name": "owner",
              "type": "address"
            },
            {
              "internalType": "string",
              "name": "carNumber",
              "type": "string"
            },
            {
              "internalType": "uint8",
              "name": "dayOfWeek",
              "type": "uint8"
            },
            {
              "internalType": "uint32",
              "name": "rentalFee",
              "type": "uint32"
            },
            {
              "internalType": "uint32",
              "name": "drivingFee",
              "type": "uint32"
            },
            {
              "internalType": "string",
              "name": "modelName",
              "type": "string"
            },
            {
              "internalType": "string",
              "name": "location",
              "type": "string"
            },
            {
              "internalType": "uint64",
              "name": "registrationDate",
              "type": "uint64"
            }
          ],
          "internalType": "struct CarSharing.Car",
          "name": "",
          "type": "tuple"
        }
      ],
      "stateMutability": "view",
      "type": "function",
      "constant": true
    },
    {
      "inputs": [],
      "name": "getAllCars",
      "outputs": [
        {
          "components": [
            {
              "internalType": "uint8",
              "name": "idx",
              "type": "uint8"
            },
            {
              "internalType": "address",
              "name": "owner",
              "type": "address"
            },
            {
              "internalType": "string",
              "name": "carNumber",
              "type": "string"
            },
            {
              "internalType": "uint8",
              "name": "dayOfWeek",
              "type": "uint8"
            },
            {
              "internalType": "uint32",
              "name": "rentalFee",
              "type": "uint32"
            },
            {
              "internalType": "uint32",
              "name": "drivingFee",
              "type": "uint32"
            },
            {
              "internalType": "string",
              "name": "modelName",
              "type": "string"
            },
            {
              "internalType": "string",
              "name": "location",
              "type": "string"
            },
            {
              "internalType": "uint64",
              "name": "registrationDate",
              "type": "uint64"
            }
          ],
          "internalType": "struct CarSharing.Car[]",
          "name": "",
          "type": "tuple[]"
        }
      ],
      "stateMutability": "view",
      "type": "function",
      "constant": true
    },
    {
      "inputs": [
        {
          "internalType": "string",
          "name": "_carNumber",
          "type": "string"
        },
        {
          "internalType": "string",
          "name": "_date",
          "type": "string"
        }
      ],
      "name": "makeReservation",
      "outputs": [],
      "stateMutability": "nonpayable",
      "type": "function"
    },
    {
      "inputs": [
        {
          "internalType": "address",
          "name": "_addr",
          "type": "address"
        }
      ],
      "name": "returnReservation",
      "outputs": [],
      "stateMutability": "nonpayable",
      "type": "function"
    },
    {
      "inputs": [
        {
          "internalType": "address",
          "name": "_addr",
          "type": "address"
        }
      ],
      "name": "getResInfo",
      "outputs": [
        {
          "components": [
            {
              "internalType": "string",
              "name": "carNumber",
              "type": "string"
            },
            {
              "internalType": "string",
              "name": "date",
              "type": "string"
            }
          ],
          "internalType": "struct CarSharing.ResInfo",
          "name": "",
          "type": "tuple"
        }
      ],
      "stateMutability": "view",
      "type": "function",
      "constant": true
    },
    {
      "inputs": [
        {
          "internalType": "string",
          "name": "_carNumber",
          "type": "string"
        }
      ],
      "name": "getReservedDates",
      "outputs": [
        {
          "internalType": "string[]",
          "name": "",
          "type": "string[]"
        }
      ],
      "stateMutability": "view",
      "type": "function",
      "constant": true
    }
  ],
  "bytecode": "0x608060405260008060006101000a81548160ff021916908360ff16021790555034801561002b57600080fd5b50612c3e8061003b6000396000f3fe608060405234801561001057600080fd5b506004361061009e5760003560e01c8063abfe5d5711610066578063abfe5d5714610158578063c466eb0614610176578063c5725241146101a6578063e208581c146101de578063f7a0adc9146101fa5761009e565b806310ace777146100a35780633cfcd87a146100d357806367af17fd146100ef578063749788d01461010b5780638dc7d82d1461013c575b600080fd5b6100bd60048036038101906100b89190611a79565b61022a565b6040516100ca9190611b7a565b60405180910390f35b6100ed60048036038101906100e89190611bd5565b6103a7565b005b61010960048036038101906101049190611a79565b6106de565b005b61012560048036038101906101209190611a79565b610ae4565b604051610133929190611c4c565b60405180910390f35b61015660048036038101906101519190611db8565b610c18565b005b610160610cf0565b60405161016d9190612025565b60405180910390f35b610190600480360381019061018b9190611bd5565b61109e565b60405161019d919061211a565b60405180910390f35b6101c060048036038101906101bb9190611bd5565b611396565b6040516101d599989796959493929190612178565b60405180910390f35b6101f860048036038101906101f39190612272565b6115ea565b005b610214600480360381019061020f9190612368565b61181b565b6040516102219190612473565b60405180910390f35b610232611912565b600360008373ffffffffffffffffffffffffffffffffffffffff1673ffffffffffffffffffffffffffffffffffffffff16815260200190815260200160002060405180604001604052908160008201805461028c906124c4565b80601f01602080910402602001604051908101604052809291908181526020018280546102b8906124c4565b80156103055780601f106102da57610100808354040283529160200191610305565b820191906000526020600020905b8154815290600101906020018083116102e857829003601f168201915b5050505050815260200160018201805461031e906124c4565b80601f016020809104026020016040519081016040528092919081815260200182805461034a906124c4565b80156103975780601f1061036c57610100808354040283529160200191610397565b820191906000526020600020905b81548152906001019060200180831161037a57829003601f168201915b5050505050815250509050919050565b60016000600160008054906101000a900460ff166103c59190612524565b60ff1660ff168152602001908152602001600020600160008360ff1660ff1681526020019081526020016000206000820160009054906101000a900460ff168160000160006101000a81548160ff021916908360ff1602179055506000820160019054906101000a900473ffffffffffffffffffffffffffffffffffffffff168160000160016101000a81548173ffffffffffffffffffffffffffffffffffffffff021916908373ffffffffffffffffffffffffffffffffffffffff1602179055506001820181600101908161049b9190612725565b506002820160009054906101000a900460ff168160020160006101000a81548160ff021916908360ff1602179055506002820160019054906101000a900463ffffffff168160020160016101000a81548163ffffffff021916908363ffffffff1602179055506002820160059054906101000a900463ffffffff168160020160056101000a81548163ffffffff021916908363ffffffff1602179055506003820181600301908161054c9190612725565b50600482018160040190816105619190612725565b506005820160009054906101000a900467ffffffffffffffff168160050160006101000a81548167ffffffffffffffff021916908367ffffffffffffffff16021790555090505060016000600160008054906101000a900460ff166105c69190612524565b60ff1660ff168152602001908152602001600020600080820160006101000a81549060ff02191690556000820160016101000a81549073ffffffffffffffffffffffffffffffffffffffff0219169055600182016000610626919061192c565b6002820160006101000a81549060ff02191690556002820160016101000a81549063ffffffff02191690556002820160056101000a81549063ffffffff0219169055600382016000610678919061192c565b600482016000610688919061192c565b6005820160006101000a81549067ffffffffffffffff0219169055505060016000808282829054906101000a900460ff166106c39190612524565b92506101000a81548160ff021916908360ff16021790555050565b6000600360008373ffffffffffffffffffffffffffffffffffffffff1673ffffffffffffffffffffffffffffffffffffffff168152602001908152602001600020600001805461072d906124c4565b80601f0160208091040260200160405190810160405280929190818152602001828054610759906124c4565b80156107a65780601f1061077b576101008083540402835291602001916107a6565b820191906000526020600020905b81548152906001019060200180831161078957829003601f168201915b505050505090506000600360008473ffffffffffffffffffffffffffffffffffffffff1673ffffffffffffffffffffffffffffffffffffffff16815260200190815260200160002060010180546107fc906124c4565b80601f0160208091040260200160405190810160405280929190818152602001828054610828906124c4565b80156108755780601f1061084a57610100808354040283529160200191610875565b820191906000526020600020905b81548152906001019060200180831161085857829003601f168201915b5050505050905060005b60028360405161088f9190612849565b908152602001604051809103902080549050811015610a3d5781805190602001206002846040516108c09190612849565b908152602001604051809103902082815481106108e0576108df612860565b5b906000526020600020016040516108f79190612932565b604051809103902003610a2a576002836040516109149190612849565b908152602001604051809103902060016002856040516109349190612849565b9081526020016040518091039020805490506109509190612949565b8154811061096157610960612860565b5b9060005260206000200160028460405161097b9190612849565b9081526020016040518091039020828154811061099b5761099a612860565b5b9060005260206000200190816109b191906129a8565b506002836040516109c29190612849565b908152602001604051809103902060016002856040516109e29190612849565b9081526020016040518091039020805490506109fe9190612949565b81548110610a0f57610a0e612860565b5b906000526020600020016000610a25919061192c565b610a3d565b8080610a3590612a90565b91505061087f565b50604051806040016040528060405180602001604052806000815250815260200160405180602001604052806000815250815250600360008573ffffffffffffffffffffffffffffffffffffffff1673ffffffffffffffffffffffffffffffffffffffff1681526020019081526020016000206000820151816000019081610ac59190612ad8565b506020820151816001019081610adb9190612ad8565b50905050505050565b6003602052806000526040600020600091509050806000018054610b07906124c4565b80601f0160208091040260200160405190810160405280929190818152602001828054610b33906124c4565b8015610b805780601f10610b5557610100808354040283529160200191610b80565b820191906000526020600020905b815481529060010190602001808311610b6357829003601f168201915b505050505090806001018054610b95906124c4565b80601f0160208091040260200160405190810160405280929190818152602001828054610bc1906124c4565b8015610c0e5780601f10610be357610100808354040283529160200191610c0e565b820191906000526020600020905b815481529060010190602001808311610bf157829003601f168201915b5050505050905082565b600282604051610c289190612849565b908152602001604051809103902081908060018154018082558091505060019003906000526020600020016000909190919091509081610c689190612ad8565b50604051806040016040528083815260200182815250600360003373ffffffffffffffffffffffffffffffffffffffff1673ffffffffffffffffffffffffffffffffffffffff1681526020019081526020016000206000820151816000019081610cd29190612ad8565b506020820151816001019081610ce89190612ad8565b509050505050565b606060008060009054906101000a900460ff1660ff1667ffffffffffffffff811115610d1f57610d1e611c8d565b5b604051908082528060200260200182016040528015610d5857816020015b610d4561196c565b815260200190600190039081610d3d5790505b50905060005b60008054906101000a900460ff1660ff168160ff16101561109657600160008260ff1660ff168152602001908152602001600020604051806101200160405290816000820160009054906101000a900460ff1660ff1660ff1681526020016000820160019054906101000a900473ffffffffffffffffffffffffffffffffffffffff1673ffffffffffffffffffffffffffffffffffffffff1673ffffffffffffffffffffffffffffffffffffffff168152602001600182018054610e21906124c4565b80601f0160208091040260200160405190810160405280929190818152602001828054610e4d906124c4565b8015610e9a5780601f10610e6f57610100808354040283529160200191610e9a565b820191906000526020600020905b815481529060010190602001808311610e7d57829003601f168201915b505050505081526020016002820160009054906101000a900460ff1660ff1660ff1681526020016002820160019054906101000a900463ffffffff1663ffffffff1663ffffffff1681526020016002820160059054906101000a900463ffffffff1663ffffffff1663ffffffff168152602001600382018054610f1c906124c4565b80601f0160208091040260200160405190810160405280929190818152602001828054610f48906124c4565b8015610f955780601f10610f6a57610100808354040283529160200191610f95565b820191906000526020600020905b815481529060010190602001808311610f7857829003601f168201915b50505050508152602001600482018054610fae906124c4565b80601f0160208091040260200160405190810160405280929190818152602001828054610fda906124c4565b80156110275780601f10610ffc57610100808354040283529160200191611027565b820191906000526020600020905b81548152906001019060200180831161100a57829003601f168201915b505050505081526020016005820160009054906101000a900467ffffffffffffffff1667ffffffffffffffff1667ffffffffffffffff1681525050828260ff168151811061107857611077612860565b5b6020026020010181905250808061108e90612baa565b915050610d5e565b508091505090565b6110a661196c565b600160008360ff1660ff168152602001908152602001600020604051806101200160405290816000820160009054906101000a900460ff1660ff1660ff1681526020016000820160019054906101000a900473ffffffffffffffffffffffffffffffffffffffff1673ffffffffffffffffffffffffffffffffffffffff1673ffffffffffffffffffffffffffffffffffffffff16815260200160018201805461114e906124c4565b80601f016020809104026020016040519081016040528092919081815260200182805461117a906124c4565b80156111c75780601f1061119c576101008083540402835291602001916111c7565b820191906000526020600020905b8154815290600101906020018083116111aa57829003601f168201915b505050505081526020016002820160009054906101000a900460ff1660ff1660ff1681526020016002820160019054906101000a900463ffffffff1663ffffffff1663ffffffff1681526020016002820160059054906101000a900463ffffffff1663ffffffff1663ffffffff168152602001600382018054611249906124c4565b80601f0160208091040260200160405190810160405280929190818152602001828054611275906124c4565b80156112c25780601f10611297576101008083540402835291602001916112c2565b820191906000526020600020905b8154815290600101906020018083116112a557829003601f168201915b505050505081526020016004820180546112db906124c4565b80601f0160208091040260200160405190810160405280929190818152602001828054611307906124c4565b80156113545780601f1061132957610100808354040283529160200191611354565b820191906000526020600020905b81548152906001019060200180831161133757829003601f168201915b505050505081526020016005820160009054906101000a900467ffffffffffffffff1667ffffffffffffffff1667ffffffffffffffff16815250509050919050565b60016020528060005260406000206000915090508060000160009054906101000a900460ff16908060000160019054906101000a900473ffffffffffffffffffffffffffffffffffffffff16908060010180546113f2906124c4565b80601f016020809104026020016040519081016040528092919081815260200182805461141e906124c4565b801561146b5780601f106114405761010080835404028352916020019161146b565b820191906000526020600020905b81548152906001019060200180831161144e57829003601f168201915b5050505050908060020160009054906101000a900460ff16908060020160019054906101000a900463ffffffff16908060020160059054906101000a900463ffffffff16908060030180546114bf906124c4565b80601f01602080910402602001604051908101604052809291908181526020018280546114eb906124c4565b80156115385780601f1061150d57610100808354040283529160200191611538565b820191906000526020600020905b81548152906001019060200180831161151b57829003601f168201915b50505050509080600401805461154d906124c4565b80601f0160208091040260200160405190810160405280929190818152602001828054611579906124c4565b80156115c65780601f1061159b576101008083540402835291602001916115c6565b820191906000526020600020905b8154815290600101906020018083116115a957829003601f168201915b5050505050908060050160009054906101000a900467ffffffffffffffff16905089565b60405180610120016040528060008054906101000a900460ff1660ff1681526020013373ffffffffffffffffffffffffffffffffffffffff1681526020018881526020018660ff1681526020018463ffffffff1681526020018363ffffffff1681526020018781526020018581526020018267ffffffffffffffff16815250600160008060009054906101000a900460ff1660ff1660ff16815260200190815260200160002060008201518160000160006101000a81548160ff021916908360ff16021790555060208201518160000160016101000a81548173ffffffffffffffffffffffffffffffffffffffff021916908373ffffffffffffffffffffffffffffffffffffffff160217905550604082015181600101908161170d9190612ad8565b5060608201518160020160006101000a81548160ff021916908360ff16021790555060808201518160020160016101000a81548163ffffffff021916908363ffffffff16021790555060a08201518160020160056101000a81548163ffffffff021916908363ffffffff16021790555060c08201518160030190816117929190612ad8565b5060e08201518160040190816117a89190612ad8565b506101008201518160050160006101000a81548167ffffffffffffffff021916908367ffffffffffffffff16021790555090505060016000808282829054906101000a900460ff166117fa9190612bd3565b92506101000a81548160ff021916908360ff16021790555050505050505050565b606060028260405161182d9190612849565b9081526020016040518091039020805480602002602001604051908101604052809291908181526020016000905b8282101561190757838290600052602060002001805461187a906124c4565b80601f01602080910402602001604051908101604052809291908181526020018280546118a6906124c4565b80156118f35780601f106118c8576101008083540402835291602001916118f3565b820191906000526020600020905b8154815290600101906020018083116118d657829003601f168201915b50505050508152602001906001019061185b565b505050509050919050565b604051806040016040528060608152602001606081525090565b508054611938906124c4565b6000825580601f1061194a5750611969565b601f01602090049060005260206000209081019061196891906119ea565b5b50565b604051806101200160405280600060ff168152602001600073ffffffffffffffffffffffffffffffffffffffff16815260200160608152602001600060ff168152602001600063ffffffff168152602001600063ffffffff1681526020016060815260200160608152602001600067ffffffffffffffff1681525090565b5b80821115611a035760008160009055506001016119eb565b5090565b6000604051905090565b600080fd5b600080fd5b600073ffffffffffffffffffffffffffffffffffffffff82169050919050565b6000611a4682611a1b565b9050919050565b611a5681611a3b565b8114611a6157600080fd5b50565b600081359050611a7381611a4d565b92915050565b600060208284031215611a8f57611a8e611a11565b5b6000611a9d84828501611a64565b91505092915050565b600081519050919050565b600082825260208201905092915050565b60005b83811015611ae0578082015181840152602081019050611ac5565b60008484015250505050565b6000601f19601f8301169050919050565b6000611b0882611aa6565b611b128185611ab1565b9350611b22818560208601611ac2565b611b2b81611aec565b840191505092915050565b60006040830160008301518482036000860152611b538282611afd565b91505060208301518482036020860152611b6d8282611afd565b9150508091505092915050565b60006020820190508181036000830152611b948184611b36565b905092915050565b600060ff82169050919050565b611bb281611b9c565b8114611bbd57600080fd5b50565b600081359050611bcf81611ba9565b92915050565b600060208284031215611beb57611bea611a11565b5b6000611bf984828501611bc0565b91505092915050565b600082825260208201905092915050565b6000611c1e82611aa6565b611c288185611c02565b9350611c38818560208601611ac2565b611c4181611aec565b840191505092915050565b60006040820190508181036000830152611c668185611c13565b90508181036020830152611c7a8184611c13565b90509392505050565b600080fd5b600080fd5b7f4e487b7100000000000000000000000000000000000000000000000000000000600052604160045260246000fd5b611cc582611aec565b810181811067ffffffffffffffff82111715611ce457611ce3611c8d565b5b80604052505050565b6000611cf7611a07565b9050611d038282611cbc565b919050565b600067ffffffffffffffff821115611d2357611d22611c8d565b5b611d2c82611aec565b9050602081019050919050565b82818337600083830152505050565b6000611d5b611d5684611d08565b611ced565b905082815260208101848484011115611d7757611d76611c88565b5b611d82848285611d39565b509392505050565b600082601f830112611d9f57611d9e611c83565b5b8135611daf848260208601611d48565b91505092915050565b60008060408385031215611dcf57611dce611a11565b5b600083013567ffffffffffffffff811115611ded57611dec611a16565b5b611df985828601611d8a565b925050602083013567ffffffffffffffff811115611e1a57611e19611a16565b5b611e2685828601611d8a565b9150509250929050565b600081519050919050565b600082825260208201905092915050565b6000819050602082019050919050565b611e6581611b9c565b82525050565b611e7481611a3b565b82525050565b600063ffffffff82169050919050565b611e9381611e7a565b82525050565b600067ffffffffffffffff82169050919050565b611eb681611e99565b82525050565b600061012083016000830151611ed56000860182611e5c565b506020830151611ee86020860182611e6b565b5060408301518482036040860152611f008282611afd565b9150506060830151611f156060860182611e5c565b506080830151611f286080860182611e8a565b5060a0830151611f3b60a0860182611e8a565b5060c083015184820360c0860152611f538282611afd565b91505060e083015184820360e0860152611f6d8282611afd565b915050610100830151611f84610100860182611ead565b508091505092915050565b6000611f9b8383611ebc565b905092915050565b6000602082019050919050565b6000611fbb82611e30565b611fc58185611e3b565b935083602082028501611fd785611e4c565b8060005b858110156120135784840389528151611ff48582611f8f565b9450611fff83611fa3565b925060208a01995050600181019050611fdb565b50829750879550505050505092915050565b6000602082019050818103600083015261203f8184611fb0565b905092915050565b6000610120830160008301516120606000860182611e5c565b5060208301516120736020860182611e6b565b506040830151848203604086015261208b8282611afd565b91505060608301516120a06060860182611e5c565b5060808301516120b36080860182611e8a565b5060a08301516120c660a0860182611e8a565b5060c083015184820360c08601526120de8282611afd565b91505060e083015184820360e08601526120f88282611afd565b91505061010083015161210f610100860182611ead565b508091505092915050565b600060208201905081810360008301526121348184612047565b905092915050565b61214581611b9c565b82525050565b61215481611a3b565b82525050565b61216381611e7a565b82525050565b61217281611e99565b82525050565b60006101208201905061218e600083018c61213c565b61219b602083018b61214b565b81810360408301526121ad818a611c13565b90506121bc606083018961213c565b6121c9608083018861215a565b6121d660a083018761215a565b81810360c08301526121e88186611c13565b905081810360e08301526121fc8185611c13565b905061220c610100830184612169565b9a9950505050505050505050565b61222381611e7a565b811461222e57600080fd5b50565b6000813590506122408161221a565b92915050565b61224f81611e99565b811461225a57600080fd5b50565b60008135905061226c81612246565b92915050565b600080600080600080600060e0888a03121561229157612290611a11565b5b600088013567ffffffffffffffff8111156122af576122ae611a16565b5b6122bb8a828b01611d8a565b975050602088013567ffffffffffffffff8111156122dc576122db611a16565b5b6122e88a828b01611d8a565b96505060406122f98a828b01611bc0565b955050606088013567ffffffffffffffff81111561231a57612319611a16565b5b6123268a828b01611d8a565b94505060806123378a828b01612231565b93505060a06123488a828b01612231565b92505060c06123598a828b0161225d565b91505092959891949750929550565b60006020828403121561237e5761237d611a11565b5b600082013567ffffffffffffffff81111561239c5761239b611a16565b5b6123a884828501611d8a565b91505092915050565b600081519050919050565b600082825260208201905092915050565b6000819050602082019050919050565b60006123e98383611afd565b905092915050565b6000602082019050919050565b6000612409826123b1565b61241381856123bc565b935083602082028501612425856123cd565b8060005b85811015612461578484038952815161244285826123dd565b945061244d836123f1565b925060208a01995050600181019050612429565b50829750879550505050505092915050565b6000602082019050818103600083015261248d81846123fe565b905092915050565b7f4e487b7100000000000000000000000000000000000000000000000000000000600052602260045260246000fd5b600060028204905060018216806124dc57607f821691505b6020821081036124ef576124ee612495565b5b50919050565b7f4e487b7100000000000000000000000000000000000000000000000000000000600052601160045260246000fd5b600061252f82611b9c565b915061253a83611b9c565b9250828203905060ff811115612553576125526124f5565b5b92915050565b600081549050612568816124c4565b9050919050565b60008190508160005260206000209050919050565b60006020601f8301049050919050565b600082821b905092915050565b6000600883026125d17fffffffffffffffffffffffffffffffffffffffffffffffffffffffffffffffff82612594565b6125db8683612594565b95508019841693508086168417925050509392505050565b6000819050919050565b6000819050919050565b600061262261261d612618846125f3565b6125fd565b6125f3565b9050919050565b6000819050919050565b61263c83612607565b61265061264882612629565b8484546125a1565b825550505050565b600090565b612665612658565b612670818484612633565b505050565b5b818110156126945761268960008261265d565b600181019050612676565b5050565b601f8211156126d9576126aa8161256f565b6126b384612584565b810160208510156126c2578190505b6126d66126ce85612584565b830182612675565b50505b505050565b600082821c905092915050565b60006126fc600019846008026126de565b1980831691505092915050565b600061271583836126eb565b9150826002028217905092915050565b81810361273357505061280b565b61273c82612559565b67ffffffffffffffff81111561275557612754611c8d565b5b61275f82546124c4565b61276a828285612698565b6000601f8311600181146127995760008415612787578287015490505b6127918582612709565b865550612804565b601f1984166127a78761256f565b96506127b28661256f565b60005b828110156127da578489015482556001820191506001850194506020810190506127b5565b868310156127f757848901546127f3601f8916826126eb565b8355505b6001600288020188555050505b5050505050505b565b600081905092915050565b600061282382611aa6565b61282d818561280d565b935061283d818560208601611ac2565b80840191505092915050565b60006128558284612818565b915081905092915050565b7f4e487b7100000000000000000000000000000000000000000000000000000000600052603260045260246000fd5b600081905092915050565b60008190508160005260206000209050919050565b600081546128bc816124c4565b6128c6818661288f565b945060018216600081146128e157600181146128f657612929565b60ff1983168652811515820286019350612929565b6128ff8561289a565b60005b8381101561292157815481890152600182019150602081019050612902565b838801955050505b50505092915050565b600061293e82846128af565b915081905092915050565b6000612954826125f3565b915061295f836125f3565b9250828203905081811115612977576129766124f5565b5b92915050565b60008154905061298c816124c4565b9050919050565b60008190508160005260206000209050919050565b8181036129b6575050612a8e565b6129bf8261297d565b67ffffffffffffffff8111156129d8576129d7611c8d565b5b6129e282546124c4565b6129ed828285612698565b6000601f831160018114612a1c5760008415612a0a578287015490505b612a148582612709565b865550612a87565b601f198416612a2a87612993565b9650612a358661256f565b60005b82811015612a5d57848901548255600182019150600185019450602081019050612a38565b86831015612a7a5784890154612a76601f8916826126eb565b8355505b6001600288020188555050505b5050505050505b565b6000612a9b826125f3565b91507fffffffffffffffffffffffffffffffffffffffffffffffffffffffffffffffff8203612acd57612acc6124f5565b5b600182019050919050565b612ae182611aa6565b67ffffffffffffffff811115612afa57612af9611c8d565b5b612b0482546124c4565b612b0f828285612698565b600060209050601f831160018114612b425760008415612b30578287015190505b612b3a8582612709565b865550612ba2565b601f198416612b508661256f565b60005b82811015612b7857848901518255600182019150602085019450602081019050612b53565b86831015612b955784890151612b91601f8916826126eb565b8355505b6001600288020188555050505b505050505050565b6000612bb582611b9c565b915060ff8203612bc857612bc76124f5565b5b600182019050919050565b6000612bde82611b9c565b9150612be983611b9c565b9250828201905060ff811115612c0257612c016124f5565b5b9291505056fea264697066735822122051d6707a6e556761adc56c44348834785e089170ffff67b04a5d729de9a469c264736f6c63430008130033",
  "immutableReferences": {},
  "source": "// SPDX-License-Identifier: UNLICENSED\r\npragma solidity ^0.8.0;\r\n\r\ncontract CarSharing {\r\n    \r\n    struct Car {\r\n        uint8 idx;\r\n        address owner;\r\n        string carNumber;\r\n        uint8 dayOfWeek;\r\n        uint32 rentalFee;\r\n        uint32 drivingFee;\r\n        string modelName;\r\n        string location;\r\n        uint64 registrationDate;\r\n        // string manufacturer;  \r\n    }\r\n\r\n    // struct Reservation {\r\n    //     string[] carNumberArr;\r\n    // }\r\n    struct ResInfo {\r\n        string carNumber;\r\n        string date;\r\n    }\r\n    \r\n    uint8 private carCnt = 0;\r\n\r\n    mapping(uint8 => Car) public cars;\r\n    // mapping(string => Reservation) private reservations; \r\n    mapping(string => string[]) private carNumberRes;\r\n    mapping(address => ResInfo) public accountRes; \r\n\r\n    function addCar(string memory _carNumber, string memory _modelName, uint8 _dayOfWeek, string memory _location, uint32 _rentalFee, uint32 _drivingFee, uint64 _registrationDate) public {\r\n        cars[carCnt] = Car({\r\n            idx: carCnt,\r\n            owner: msg.sender,\r\n            carNumber: _carNumber,\r\n            modelName: _modelName,\r\n            dayOfWeek: _dayOfWeek,\r\n            location: _location,\r\n            rentalFee: _rentalFee,\r\n            drivingFee: _drivingFee,\r\n            registrationDate: _registrationDate\r\n        });\r\n        carCnt += 1;\r\n    }\r\n\r\n    function deleteCar(uint8 _idx) public {\r\n        cars[_idx] = cars[carCnt-1];\r\n        delete cars[carCnt-1];\r\n        carCnt -= 1;\r\n    }\r\n\r\n    function getCar(uint8 _idx) public view returns (Car memory) {\r\n        return cars[_idx];\r\n    }\r\n\r\n    function getAllCars() public view returns (Car[] memory) {\r\n        Car[] memory ret = new Car[](carCnt);\r\n        for (uint8 i = 0; i < carCnt; i++) {\r\n            ret[i] = cars[i];\r\n        }\r\n        return ret;\r\n    }\r\n\r\n    function makeReservation(string memory _carNumber, string memory _date) public {\r\n        carNumberRes[_carNumber].push(_date);\r\n        accountRes[msg.sender] = ResInfo(_carNumber, _date);\r\n    }\r\n\r\n    function returnReservation(address _addr) public {\r\n        string memory carNumber = accountRes[_addr].carNumber;\r\n        string memory date = accountRes[_addr].date;\r\n        for (uint256 i = 0; i < carNumberRes[carNumber].length; i++) {\r\n            if (keccak256(bytes(carNumberRes[carNumber][i])) == keccak256(bytes(date))) {\r\n                carNumberRes[carNumber][i] = carNumberRes[carNumber][carNumberRes[carNumber].length-1];\r\n                delete carNumberRes[carNumber][carNumberRes[carNumber].length-1];\r\n                break;\r\n            }\r\n        }\r\n        accountRes[_addr] = ResInfo(\"\", \"\");\r\n    }\r\n\r\n    // function getResInfo() public view returns(ResInfo memory) {\r\n    //     return accountRes[msg.sender];\r\n    // }\r\n\r\n    function getResInfo(address _addr) public view returns(ResInfo memory) {\r\n        return accountRes[_addr];\r\n    }\r\n\r\n    function getReservedDates(string memory _carNumber) public view returns (string[] memory) {\r\n        return carNumberRes[_carNumber];\r\n    }\r\n\r\n\r\n\r\n    // function isReservationAvailable(uint32 _date, string memory _carNumber) public view returns (bool){\r\n    //     string[] memory carNumberArr = reservations[_date].carNumberArr;\r\n    //     for (uint i = 0; i < carNumberArr.length; i++) {\r\n    //         if (keccak256(bytes(carNumberArr[i])) == keccak256(bytes(_carNumber))) {\r\n    //             return false;\r\n    //         }\r\n    //     }\r\n    //     return true;\r\n    // }\r\n\r\n    // function getReservableCars(uint32 _date, uint8 _day) public view returns (Car[] memory) {\r\n    //     Car[] memory ret = new Car[](carCnt);\r\n    //     for (uint8 i = 0; i < carCnt; i++) {\r\n    //         if (isReservationAvailable(_date, cars[i].carNumber) == false) continue;\r\n    //         if (cars[i].dayOfWeek & (1 << (6-_day)) > 0) {\r\n    //             ret[i] = cars[i];\r\n    //         }\r\n    //     }\r\n    //     return ret;\r\n    // }\r\n}\r\n// pragma solidity ^0.8.0;\r\n\r\n// contract CarSharing {\r\n//     int private count = 0;\r\n    \r\n//     struct Car {\r\n//         uint256 carId;\r\n//         address owner;\r\n//         string model;\r\n//     }\r\n//     uint256 private carCnt = 0;\r\n\r\n//     mapping(uint256 => Car) public cars;\r\n\r\n//     // function addCar() public payable {\r\n//     //     cars[carCnt] = Car({\r\n//     //         carId: carCnt,\r\n//     //         owner: msg.sender\r\n//     //     });\r\n//     //     carCnt += 1;\r\n//     // }\r\n\r\n//     function incrementCounter(string memory _model) public {\r\n//         cars[carCnt] = Car({\r\n//             carId: carCnt,\r\n//             owner: msg.sender,\r\n//             model: _model\r\n//         });\r\n//         carCnt += 1;\r\n//     }\r\n\r\n//     function decrementCounter() public {\r\n//         delete cars[carCnt - 1];\r\n//         carCnt -= 1;\r\n//     }\r\n\r\n//     function getCount() public view returns (uint256) {\r\n//         return carCnt;\r\n//     }\r\n\r\n//     function getCar(uint256 _i) public view returns (Car memory) {\r\n//         return cars[_i];\r\n//     }\r\n\r\n//     function getAllCar() public view returns (Car[] memory) {\r\n//         Car[] memory ret = new Car[](carCnt);\r\n//         for (uint256 i = 0; i < carCnt; i++) {\r\n//             ret[i] = cars[i];\r\n//         }\r\n//         return ret;\r\n//     }\r\n// }",
  "sourcePath": "C:\\Users\\kimminjeong\\Desktop\\0512-1\\contracts\\CarSharing.sol",
  "compiler": {
    "name": "solc",
    "version": "0.8.19+commit.7dd6d404.Emscripten.clang"
  },
  "schemaVersion": "3.4.13",
  "updatedAt": "2023-05-23T07:30:40.929Z",
  "networkType": "ethereum",
  "devdoc": {
    "kind": "dev",
    "methods": {},
    "version": 1
  },
  "userdoc": {
    "kind": "user",
    "methods": {},
    "version": 1
  }
}