{
  "contractName": "CarSharing",
  "abi": [
    {
      "inputs": [
        {
          "internalType": "address",
          "name": "",
          "type": "address"
        },
        {
          "internalType": "uint256",
          "name": "",
          "type": "uint256"
        }
      ],
      "name": "accountBorrow",
      "outputs": [
        {
          "internalType": "uint256",
          "name": "idx",
          "type": "uint256"
        },
        {
          "internalType": "string",
          "name": "modelName",
          "type": "string"
        },
        {
          "internalType": "address",
          "name": "addr",
          "type": "address"
        },
        {
          "internalType": "string",
          "name": "carNumber",
          "type": "string"
        },
        {
          "internalType": "string",
          "name": "rentalDate",
          "type": "string"
        },
        {
          "internalType": "string",
          "name": "returnDate",
          "type": "string"
        },
        {
          "internalType": "uint32",
          "name": "totalFee",
          "type": "uint32"
        }
      ],
      "stateMutability": "view",
      "type": "function",
      "constant": true
    },
    {
      "inputs": [
        {
          "internalType": "address",
          "name": "",
          "type": "address"
        },
        {
          "internalType": "uint256",
          "name": "",
          "type": "uint256"
        }
      ],
      "name": "accountLend",
      "outputs": [
        {
          "internalType": "uint256",
          "name": "idx",
          "type": "uint256"
        },
        {
          "internalType": "string",
          "name": "modelName",
          "type": "string"
        },
        {
          "internalType": "address",
          "name": "addr",
          "type": "address"
        },
        {
          "internalType": "string",
          "name": "carNumber",
          "type": "string"
        },
        {
          "internalType": "string",
          "name": "rentalDate",
          "type": "string"
        },
        {
          "internalType": "string",
          "name": "returnDate",
          "type": "string"
        },
        {
          "internalType": "uint32",
          "name": "totalFee",
          "type": "uint32"
        }
      ],
      "stateMutability": "view",
      "type": "function",
      "constant": true
    },
    {
      "inputs": [
        {
          "internalType": "uint8",
          "name": "",
          "type": "uint8"
        }
      ],
      "name": "cars",
      "outputs": [
        {
          "internalType": "uint8",
          "name": "idx",
          "type": "uint8"
        },
        {
          "internalType": "address",
          "name": "owner",
          "type": "address"
        },
        {
          "internalType": "string",
          "name": "carNumber",
          "type": "string"
        },
        {
          "internalType": "string",
          "name": "modelName",
          "type": "string"
        },
        {
          "internalType": "uint8",
          "name": "dayOfWeek",
          "type": "uint8"
        },
        {
          "internalType": "string",
          "name": "location",
          "type": "string"
        },
        {
          "internalType": "uint32",
          "name": "rentalFee",
          "type": "uint32"
        },
        {
          "internalType": "uint32",
          "name": "drivingFee",
          "type": "uint32"
        },
        {
          "internalType": "bool",
          "name": "isRentable",
          "type": "bool"
        }
      ],
      "stateMutability": "view",
      "type": "function",
      "constant": true
    },
    {
      "inputs": [
        {
          "internalType": "string",
          "name": "_carNumber",
          "type": "string"
        },
        {
          "internalType": "string",
          "name": "_modelName",
          "type": "string"
        },
        {
          "internalType": "uint8",
          "name": "_dayOfWeek",
          "type": "uint8"
        },
        {
          "internalType": "string",
          "name": "_location",
          "type": "string"
        },
        {
          "internalType": "uint32",
          "name": "_rentalFee",
          "type": "uint32"
        },
        {
          "internalType": "uint32",
          "name": "_drivingFee",
          "type": "uint32"
        }
      ],
      "name": "addCar",
      "outputs": [],
      "stateMutability": "nonpayable",
      "type": "function"
    },
    {
      "inputs": [
        {
          "internalType": "uint8",
          "name": "_idx",
          "type": "uint8"
        }
      ],
      "name": "modifyCar",
      "outputs": [],
      "stateMutability": "nonpayable",
      "type": "function"
    },
    {
      "inputs": [
        {
          "internalType": "uint8",
          "name": "_idx",
          "type": "uint8"
        }
      ],
      "name": "getCar",
      "outputs": [
        {
          "components": [
            {
              "internalType": "uint8",
              "name": "idx",
              "type": "uint8"
            },
            {
              "internalType": "address",
              "name": "owner",
              "type": "address"
            },
            {
              "internalType": "string",
              "name": "carNumber",
              "type": "string"
            },
            {
              "internalType": "string",
              "name": "modelName",
              "type": "string"
            },
            {
              "internalType": "uint8",
              "name": "dayOfWeek",
              "type": "uint8"
            },
            {
              "internalType": "string",
              "name": "location",
              "type": "string"
            },
            {
              "internalType": "uint32",
              "name": "rentalFee",
              "type": "uint32"
            },
            {
              "internalType": "uint32",
              "name": "drivingFee",
              "type": "uint32"
            },
            {
              "internalType": "bool",
              "name": "isRentable",
              "type": "bool"
            }
          ],
          "internalType": "struct CarSharing.Car",
          "name": "",
          "type": "tuple"
        }
      ],
      "stateMutability": "view",
      "type": "function",
      "constant": true
    },
    {
      "inputs": [],
      "name": "getAllCars",
      "outputs": [
        {
          "components": [
            {
              "internalType": "uint8",
              "name": "idx",
              "type": "uint8"
            },
            {
              "internalType": "address",
              "name": "owner",
              "type": "address"
            },
            {
              "internalType": "string",
              "name": "carNumber",
              "type": "string"
            },
            {
              "internalType": "string",
              "name": "modelName",
              "type": "string"
            },
            {
              "internalType": "uint8",
              "name": "dayOfWeek",
              "type": "uint8"
            },
            {
              "internalType": "string",
              "name": "location",
              "type": "string"
            },
            {
              "internalType": "uint32",
              "name": "rentalFee",
              "type": "uint32"
            },
            {
              "internalType": "uint32",
              "name": "drivingFee",
              "type": "uint32"
            },
            {
              "internalType": "bool",
              "name": "isRentable",
              "type": "bool"
            }
          ],
          "internalType": "struct CarSharing.Car[]",
          "name": "",
          "type": "tuple[]"
        }
      ],
      "stateMutability": "view",
      "type": "function",
      "constant": true
    },
    {
      "inputs": [
        {
          "internalType": "uint8",
          "name": "_idx",
          "type": "uint8"
        },
        {
          "internalType": "string",
          "name": "_rentalDate",
          "type": "string"
        }
      ],
      "name": "startRental",
      "outputs": [],
      "stateMutability": "nonpayable",
      "type": "function"
    },
    {
      "inputs": [
        {
          "internalType": "address",
          "name": "_sender",
          "type": "address"
        },
        {
          "internalType": "string",
          "name": "_returnDate",
          "type": "string"
        },
        {
          "internalType": "uint32",
          "name": "_drivingFee",
          "type": "uint32"
        }
      ],
      "name": "endRental",
      "outputs": [],
      "stateMutability": "nonpayable",
      "type": "function"
    },
    {
      "inputs": [
        {
          "internalType": "string",
          "name": "_carNumber",
          "type": "string"
        }
      ],
      "name": "getAllRenDates",
      "outputs": [
        {
          "internalType": "string[]",
          "name": "",
          "type": "string[]"
        }
      ],
      "stateMutability": "view",
      "type": "function",
      "constant": true
    },
    {
      "inputs": [
        {
          "internalType": "address",
          "name": "_addr",
          "type": "address"
        }
      ],
      "name": "getAccountBorrowLength",
      "outputs": [
        {
          "internalType": "uint256",
          "name": "",
          "type": "uint256"
        }
      ],
      "stateMutability": "view",
      "type": "function",
      "constant": true
    },
    {
      "inputs": [
        {
          "internalType": "address",
          "name": "_addr",
          "type": "address"
        }
      ],
      "name": "getBorrow",
      "outputs": [
        {
          "components": [
            {
              "internalType": "uint256",
              "name": "idx",
              "type": "uint256"
            },
            {
              "internalType": "string",
              "name": "modelName",
              "type": "string"
            },
            {
              "internalType": "address",
              "name": "addr",
              "type": "address"
            },
            {
              "internalType": "string",
              "name": "carNumber",
              "type": "string"
            },
            {
              "internalType": "string",
              "name": "rentalDate",
              "type": "string"
            },
            {
              "internalType": "string",
              "name": "returnDate",
              "type": "string"
            },
            {
              "internalType": "uint32",
              "name": "totalFee",
              "type": "uint32"
            }
          ],
          "internalType": "struct CarSharing.RenInfo",
          "name": "",
          "type": "tuple"
        }
      ],
      "stateMutability": "view",
      "type": "function",
      "constant": true
    },
    {
      "inputs": [
        {
          "internalType": "address",
          "name": "_addr",
          "type": "address"
        },
        {
          "internalType": "string",
          "name": "_carNumber",
          "type": "string"
        },
        {
          "internalType": "string",
          "name": "_rentalDate",
          "type": "string"
        }
      ],
      "name": "getLendIdx",
      "outputs": [
        {
          "internalType": "uint256",
          "name": "",
          "type": "uint256"
        }
      ],
      "stateMutability": "view",
      "type": "function",
      "constant": true
    },
    {
      "inputs": [
        {
          "internalType": "address",
          "name": "_addr",
          "type": "address"
        }
      ],
      "name": "getAllBorrow",
      "outputs": [
        {
          "components": [
            {
              "internalType": "uint256",
              "name": "idx",
              "type": "uint256"
            },
            {
              "internalType": "string",
              "name": "modelName",
              "type": "string"
            },
            {
              "internalType": "address",
              "name": "addr",
              "type": "address"
            },
            {
              "internalType": "string",
              "name": "carNumber",
              "type": "string"
            },
            {
              "internalType": "string",
              "name": "rentalDate",
              "type": "string"
            },
            {
              "internalType": "string",
              "name": "returnDate",
              "type": "string"
            },
            {
              "internalType": "uint32",
              "name": "totalFee",
              "type": "uint32"
            }
          ],
          "internalType": "struct CarSharing.RenInfo[]",
          "name": "",
          "type": "tuple[]"
        }
      ],
      "stateMutability": "view",
      "type": "function",
      "constant": true
    },
    {
      "inputs": [
        {
          "internalType": "address",
          "name": "_addr",
          "type": "address"
        }
      ],
      "name": "getAllLend",
      "outputs": [
        {
          "components": [
            {
              "internalType": "uint256",
              "name": "idx",
              "type": "uint256"
            },
            {
              "internalType": "string",
              "name": "modelName",
              "type": "string"
            },
            {
              "internalType": "address",
              "name": "addr",
              "type": "address"
            },
            {
              "internalType": "string",
              "name": "carNumber",
              "type": "string"
            },
            {
              "internalType": "string",
              "name": "rentalDate",
              "type": "string"
            },
            {
              "internalType": "string",
              "name": "returnDate",
              "type": "string"
            },
            {
              "internalType": "uint32",
              "name": "totalFee",
              "type": "uint32"
            }
          ],
          "internalType": "struct CarSharing.RenInfo[]",
          "name": "",
          "type": "tuple[]"
        }
      ],
      "stateMutability": "view",
      "type": "function",
      "constant": true
    },
    {
      "inputs": [
        {
          "internalType": "address",
          "name": "_sender",
          "type": "address"
        }
      ],
      "name": "cancelRental",
      "outputs": [],
      "stateMutability": "nonpayable",
      "type": "function"
    }
  ],
  "bytecode": "0x608060405260008060006101000a81548160ff021916908360ff16021790555034801561002b57600080fd5b506146b28061003b6000396000f3fe608060405234801561001057600080fd5b50600436106101005760003560e01c8063ae8c1cc211610097578063cfae1ac611610066578063cfae1ac61461030b578063dc8a70161461033b578063ead52a5a14610357578063eecdb1051461037357610100565b8063ae8c1cc214610257578063c12b6a4214610287578063c466eb06146102a3578063c5725241146102d357610100565b80638b60550a116100d35780638b60550a146101b75780639d7d6544146101ed578063ab588fad14610209578063abfe5d571461023957610100565b806313fc6c12146101055780636196880f14610135578063717f1cf91461016b5780637adaf08e14610187575b600080fd5b61011f600480360381019061011a91906131ec565b6103a3565b60405161012c9190613463565b60405180910390f35b61014f600480360381019061014a91906134b1565b61070f565b6040516101629796959493929190613568565b60405180910390f35b61018560048036038101906101809190613754565b6109be565b005b6101a1600480360381019061019c91906131ec565b610fae565b6040516101ae9190613463565b60405180910390f35b6101d160048036038101906101cc91906134b1565b61131a565b6040516101e49796959493929190613568565b60405180910390f35b610207600480360381019061020291906131ec565b6115c9565b005b610223600480360381019061021e91906137c3565b6119b9565b604051610230919061384e565b60405180910390f35b610241611be8565b60405161024e9190613a35565b60405180910390f35b610271600480360381019061026c9190613a57565b611f7f565b60405161027e9190613b62565b60405180910390f35b6102a1600480360381019061029c9190613bb0565b612076565b005b6102bd60048036038101906102b89190613bb0565b6120d7565b6040516102ca9190613cb0565b60405180910390f35b6102ed60048036038101906102e89190613bb0565b6123b8565b60405161030299989796959493929190613cf0565b60405180910390f35b610325600480360381019061032091906131ec565b612605565b6040516103329190613e43565b60405180910390f35b61035560048036038101906103509190613e65565b6129a0565b005b610371600480360381019061036c9190613ec1565b612de8565b005b61038d600480360381019061038891906131ec565b613002565b60405161039a919061384e565b60405180910390f35b6060600260008373ffffffffffffffffffffffffffffffffffffffff1673ffffffffffffffffffffffffffffffffffffffff168152602001908152602001600020805480602002602001604051908101604052809291908181526020016000905b8282101561070457838290600052602060002090600702016040518060e00160405290816000820154815260200160018201805461044190613fd1565b80601f016020809104026020016040519081016040528092919081815260200182805461046d90613fd1565b80156104ba5780601f1061048f576101008083540402835291602001916104ba565b820191906000526020600020905b81548152906001019060200180831161049d57829003601f168201915b505050505081526020016002820160009054906101000a900473ffffffffffffffffffffffffffffffffffffffff1673ffffffffffffffffffffffffffffffffffffffff1673ffffffffffffffffffffffffffffffffffffffff16815260200160038201805461052990613fd1565b80601f016020809104026020016040519081016040528092919081815260200182805461055590613fd1565b80156105a25780601f10610577576101008083540402835291602001916105a2565b820191906000526020600020905b81548152906001019060200180831161058557829003601f168201915b505050505081526020016004820180546105bb90613fd1565b80601f01602080910402602001604051908101604052809291908181526020018280546105e790613fd1565b80156106345780601f1061060957610100808354040283529160200191610634565b820191906000526020600020905b81548152906001019060200180831161061757829003601f168201915b5050505050815260200160058201805461064d90613fd1565b80601f016020809104026020016040519081016040528092919081815260200182805461067990613fd1565b80156106c65780601f1061069b576101008083540402835291602001916106c6565b820191906000526020600020905b8154815290600101906020018083116106a957829003601f168201915b505050505081526020016006820160009054906101000a900463ffffffff1663ffffffff1663ffffffff168152505081526020019060010190610404565b505050509050919050565b6003602052816000526040600020818154811061072b57600080fd5b90600052602060002090600702016000915091505080600001549080600101805461075590613fd1565b80601f016020809104026020016040519081016040528092919081815260200182805461078190613fd1565b80156107ce5780601f106107a3576101008083540402835291602001916107ce565b820191906000526020600020905b8154815290600101906020018083116107b157829003601f168201915b5050505050908060020160009054906101000a900473ffffffffffffffffffffffffffffffffffffffff169080600301805461080990613fd1565b80601f016020809104026020016040519081016040528092919081815260200182805461083590613fd1565b80156108825780601f1061085757610100808354040283529160200191610882565b820191906000526020600020905b81548152906001019060200180831161086557829003601f168201915b50505050509080600401805461089790613fd1565b80601f01602080910402602001604051908101604052809291908181526020018280546108c390613fd1565b80156109105780601f106108e557610100808354040283529160200191610910565b820191906000526020600020905b8154815290600101906020018083116108f357829003601f168201915b50505050509080600501805461092590613fd1565b80601f016020809104026020016040519081016040528092919081815260200182805461095190613fd1565b801561099e5780601f106109735761010080835404028352916020019161099e565b820191906000526020600020905b81548152906001019060200180831161098157829003601f168201915b5050505050908060060160009054906101000a900463ffffffff16905087565b6000600360008573ffffffffffffffffffffffffffffffffffffffff1673ffffffffffffffffffffffffffffffffffffffff1681526020019081526020016000208054905090506000600360008673ffffffffffffffffffffffffffffffffffffffff1673ffffffffffffffffffffffffffffffffffffffff168152602001908152602001600020600183610a539190614031565b81548110610a6457610a63614065565b5b90600052602060002090600702016040518060e001604052908160008201548152602001600182018054610a9790613fd1565b80601f0160208091040260200160405190810160405280929190818152602001828054610ac390613fd1565b8015610b105780601f10610ae557610100808354040283529160200191610b10565b820191906000526020600020905b815481529060010190602001808311610af357829003601f168201915b505050505081526020016002820160009054906101000a900473ffffffffffffffffffffffffffffffffffffffff1673ffffffffffffffffffffffffffffffffffffffff1673ffffffffffffffffffffffffffffffffffffffff168152602001600382018054610b7f90613fd1565b80601f0160208091040260200160405190810160405280929190818152602001828054610bab90613fd1565b8015610bf85780601f10610bcd57610100808354040283529160200191610bf8565b820191906000526020600020905b815481529060010190602001808311610bdb57829003601f168201915b50505050508152602001600482018054610c1190613fd1565b80601f0160208091040260200160405190810160405280929190818152602001828054610c3d90613fd1565b8015610c8a5780601f10610c5f57610100808354040283529160200191610c8a565b820191906000526020600020905b815481529060010190602001808311610c6d57829003601f168201915b50505050508152602001600582018054610ca390613fd1565b80601f0160208091040260200160405190810160405280929190818152602001828054610ccf90613fd1565b8015610d1c5780601f10610cf157610100808354040283529160200191610d1c565b820191906000526020600020905b815481529060010190602001808311610cff57829003601f168201915b505050505081526020016006820160009054906101000a900463ffffffff1663ffffffff1663ffffffff168152505090506000610d668260400151836060015184608001516119b9565b905084600360008873ffffffffffffffffffffffffffffffffffffffff1673ffffffffffffffffffffffffffffffffffffffff168152602001908152602001600020600185610db59190614031565b81548110610dc657610dc5614065565b5b90600052602060002090600702016005019081610de39190614240565b5083600360008873ffffffffffffffffffffffffffffffffffffffff1673ffffffffffffffffffffffffffffffffffffffff168152602001908152602001600020600185610e319190614031565b81548110610e4257610e41614065565b5b906000526020600020906007020160060160008282829054906101000a900463ffffffff16610e719190614312565b92506101000a81548163ffffffff021916908363ffffffff1602179055508460026000846040015173ffffffffffffffffffffffffffffffffffffffff1673ffffffffffffffffffffffffffffffffffffffff1681526020019081526020016000208281548110610ee557610ee4614065565b5b90600052602060002090600702016005019081610f029190614240565b508360026000846040015173ffffffffffffffffffffffffffffffffffffffff1673ffffffffffffffffffffffffffffffffffffffff1681526020019081526020016000208281548110610f5957610f58614065565b5b906000526020600020906007020160060160008282829054906101000a900463ffffffff16610f889190614312565b92506101000a81548163ffffffff021916908363ffffffff160217905550505050505050565b6060600360008373ffffffffffffffffffffffffffffffffffffffff1673ffffffffffffffffffffffffffffffffffffffff168152602001908152602001600020805480602002602001604051908101604052809291908181526020016000905b8282101561130f57838290600052602060002090600702016040518060e00160405290816000820154815260200160018201805461104c90613fd1565b80601f016020809104026020016040519081016040528092919081815260200182805461107890613fd1565b80156110c55780601f1061109a576101008083540402835291602001916110c5565b820191906000526020600020905b8154815290600101906020018083116110a857829003601f168201915b505050505081526020016002820160009054906101000a900473ffffffffffffffffffffffffffffffffffffffff1673ffffffffffffffffffffffffffffffffffffffff1673ffffffffffffffffffffffffffffffffffffffff16815260200160038201805461113490613fd1565b80601f016020809104026020016040519081016040528092919081815260200182805461116090613fd1565b80156111ad5780601f10611182576101008083540402835291602001916111ad565b820191906000526020600020905b81548152906001019060200180831161119057829003601f168201915b505050505081526020016004820180546111c690613fd1565b80601f01602080910402602001604051908101604052809291908181526020018280546111f290613fd1565b801561123f5780601f106112145761010080835404028352916020019161123f565b820191906000526020600020905b81548152906001019060200180831161122257829003601f168201915b5050505050815260200160058201805461125890613fd1565b80601f016020809104026020016040519081016040528092919081815260200182805461128490613fd1565b80156112d15780601f106112a6576101008083540402835291602001916112d1565b820191906000526020600020905b8154815290600101906020018083116112b457829003601f168201915b505050505081526020016006820160009054906101000a900463ffffffff1663ffffffff1663ffffffff16815250508152602001906001019061100f565b505050509050919050565b6002602052816000526040600020818154811061133657600080fd5b90600052602060002090600702016000915091505080600001549080600101805461136090613fd1565b80601f016020809104026020016040519081016040528092919081815260200182805461138c90613fd1565b80156113d95780601f106113ae576101008083540402835291602001916113d9565b820191906000526020600020905b8154815290600101906020018083116113bc57829003601f168201915b5050505050908060020160009054906101000a900473ffffffffffffffffffffffffffffffffffffffff169080600301805461141490613fd1565b80601f016020809104026020016040519081016040528092919081815260200182805461144090613fd1565b801561148d5780601f106114625761010080835404028352916020019161148d565b820191906000526020600020905b81548152906001019060200180831161147057829003601f168201915b5050505050908060040180546114a290613fd1565b80601f01602080910402602001604051908101604052809291908181526020018280546114ce90613fd1565b801561151b5780601f106114f05761010080835404028352916020019161151b565b820191906000526020600020905b8154815290600101906020018083116114fe57829003601f168201915b50505050509080600501805461153090613fd1565b80601f016020809104026020016040519081016040528092919081815260200182805461155c90613fd1565b80156115a95780601f1061157e576101008083540402835291602001916115a9565b820191906000526020600020905b81548152906001019060200180831161158c57829003601f168201915b5050505050908060060160009054906101000a900463ffffffff16905087565b60006115d482612605565b90506000600482606001516040516115ec9190614386565b908152602001604051809103902080549050905060005b81811015611772578260800151805190602001206004846060015160405161162b9190614386565b9081526020016040518091039020828154811061164b5761164a614065565b5b906000526020600020016040516116629190614440565b60405180910390200361175f57600483606001516040516116839190614386565b908152602001604051809103902060018361169e9190614031565b815481106116af576116ae614065565b5b90600052602060002001600484606001516040516116cd9190614386565b908152602001604051809103902082815481106116ed576116ec614065565b5b9060005260206000200190816117039190614482565b50600483606001516040516117189190614386565b90815260200160405180910390206001836117339190614031565b8154811061174457611743614065565b5b90600052602060002001600061175a919061304e565b611772565b808061176a9061456a565b915050611603565b50600360008473ffffffffffffffffffffffffffffffffffffffff1673ffffffffffffffffffffffffffffffffffffffff16815260200190815260200160002080549050905060006117d18360400151846060015185608001516119b9565b9050600360008573ffffffffffffffffffffffffffffffffffffffff1673ffffffffffffffffffffffffffffffffffffffff16815260200190815260200160002060018361181f9190614031565b815481106118305761182f614065565b5b9060005260206000209060070201600080820160009055600182016000611857919061304e565b6002820160006101000a81549073ffffffffffffffffffffffffffffffffffffffff021916905560038201600061188e919061304e565b60048201600061189e919061304e565b6005820160006118ae919061304e565b6006820160006101000a81549063ffffffff0219169055505060026000846040015173ffffffffffffffffffffffffffffffffffffffff1673ffffffffffffffffffffffffffffffffffffffff168152602001908152602001600020818154811061191c5761191b614065565b5b9060005260206000209060070201600080820160009055600182016000611943919061304e565b6002820160006101000a81549073ffffffffffffffffffffffffffffffffffffffff021916905560038201600061197a919061304e565b60048201600061198a919061304e565b60058201600061199a919061304e565b6006820160006101000a81549063ffffffff0219169055505050505050565b600080600090505b600260008673ffffffffffffffffffffffffffffffffffffffff1673ffffffffffffffffffffffffffffffffffffffff16815260200190815260200160002080549050811015611ba5576000600260008773ffffffffffffffffffffffffffffffffffffffff1673ffffffffffffffffffffffffffffffffffffffff1681526020019081526020016000208281548110611a5e57611a5d614065565b5b90600052602060002090600702016005018054611a7a90613fd1565b905003611b92578380519060200120600260008773ffffffffffffffffffffffffffffffffffffffff1673ffffffffffffffffffffffffffffffffffffffff1681526020019081526020016000208281548110611ada57611ad9614065565b5b9060005260206000209060070201600301604051611af89190614440565b604051809103902003611b92578280519060200120600260008773ffffffffffffffffffffffffffffffffffffffff1673ffffffffffffffffffffffffffffffffffffffff1681526020019081526020016000208281548110611b5e57611b5d614065565b5b9060005260206000209060070201600401604051611b7c9190614440565b604051809103902003611b925780915050611be1565b8080611b9d9061456a565b9150506119c1565b506040517f08c379a0000000000000000000000000000000000000000000000000000000008152600401611bd8906145fe565b60405180910390fd5b9392505050565b606060008060009054906101000a900460ff1660ff1667ffffffffffffffff811115611c1757611c166135fd565b5b604051908082528060200260200182016040528015611c5057816020015b611c3d61308e565b815260200190600190039081611c355790505b50905060005b60008054906101000a900460ff1660ff168160ff161015611f7757600160008260ff1660ff168152602001908152602001600020604051806101200160405290816000820160009054906101000a900460ff1660ff1660ff1681526020016000820160019054906101000a900473ffffffffffffffffffffffffffffffffffffffff1673ffffffffffffffffffffffffffffffffffffffff1673ffffffffffffffffffffffffffffffffffffffff168152602001600182018054611d1990613fd1565b80601f0160208091040260200160405190810160405280929190818152602001828054611d4590613fd1565b8015611d925780601f10611d6757610100808354040283529160200191611d92565b820191906000526020600020905b815481529060010190602001808311611d7557829003601f168201915b50505050508152602001600282018054611dab90613fd1565b80601f0160208091040260200160405190810160405280929190818152602001828054611dd790613fd1565b8015611e245780601f10611df957610100808354040283529160200191611e24565b820191906000526020600020905b815481529060010190602001808311611e0757829003601f168201915b505050505081526020016003820160009054906101000a900460ff1660ff1660ff168152602001600482018054611e5a90613fd1565b80601f0160208091040260200160405190810160405280929190818152602001828054611e8690613fd1565b8015611ed35780601f10611ea857610100808354040283529160200191611ed3565b820191906000526020600020905b815481529060010190602001808311611eb657829003601f168201915b505050505081526020016005820160009054906101000a900463ffffffff1663ffffffff1663ffffffff1681526020016005820160049054906101000a900463ffffffff1663ffffffff1663ffffffff1681526020016005820160089054906101000a900460ff161515151581525050828260ff1681518110611f5957611f58614065565b5b60200260200101819052508080611f6f9061461e565b915050611c56565b508091505090565b6060600482604051611f919190614386565b9081526020016040518091039020805480602002602001604051908101604052809291908181526020016000905b8282101561206b578382906000526020600020018054611fde90613fd1565b80601f016020809104026020016040519081016040528092919081815260200182805461200a90613fd1565b80156120575780601f1061202c57610100808354040283529160200191612057565b820191906000526020600020905b81548152906001019060200180831161203a57829003601f168201915b505050505081526020019060010190611fbf565b505050509050919050565b600160008260ff1660ff16815260200190815260200160002060050160089054906101000a900460ff1615600160008360ff1660ff16815260200190815260200160002060050160086101000a81548160ff02191690831515021790555050565b6120df61308e565b600160008360ff1660ff168152602001908152602001600020604051806101200160405290816000820160009054906101000a900460ff1660ff1660ff1681526020016000820160019054906101000a900473ffffffffffffffffffffffffffffffffffffffff1673ffffffffffffffffffffffffffffffffffffffff1673ffffffffffffffffffffffffffffffffffffffff16815260200160018201805461218790613fd1565b80601f01602080910402602001604051908101604052809291908181526020018280546121b390613fd1565b80156122005780601f106121d557610100808354040283529160200191612200565b820191906000526020600020905b8154815290600101906020018083116121e357829003601f168201915b5050505050815260200160028201805461221990613fd1565b80601f016020809104026020016040519081016040528092919081815260200182805461224590613fd1565b80156122925780601f1061226757610100808354040283529160200191612292565b820191906000526020600020905b81548152906001019060200180831161227557829003601f168201915b505050505081526020016003820160009054906101000a900460ff1660ff1660ff1681526020016004820180546122c890613fd1565b80601f01602080910402602001604051908101604052809291908181526020018280546122f490613fd1565b80156123415780601f1061231657610100808354040283529160200191612341565b820191906000526020600020905b81548152906001019060200180831161232457829003601f168201915b505050505081526020016005820160009054906101000a900463ffffffff1663ffffffff1663ffffffff1681526020016005820160049054906101000a900463ffffffff1663ffffffff1663ffffffff1681526020016005820160089054906101000a900460ff1615151515815250509050919050565b60016020528060005260406000206000915090508060000160009054906101000a900460ff16908060000160019054906101000a900473ffffffffffffffffffffffffffffffffffffffff169080600101805461241490613fd1565b80601f016020809104026020016040519081016040528092919081815260200182805461244090613fd1565b801561248d5780601f106124625761010080835404028352916020019161248d565b820191906000526020600020905b81548152906001019060200180831161247057829003601f168201915b5050505050908060020180546124a290613fd1565b80601f01602080910402602001604051908101604052809291908181526020018280546124ce90613fd1565b801561251b5780601f106124f05761010080835404028352916020019161251b565b820191906000526020600020905b8154815290600101906020018083116124fe57829003601f168201915b5050505050908060030160009054906101000a900460ff169080600401805461254390613fd1565b80601f016020809104026020016040519081016040528092919081815260200182805461256f90613fd1565b80156125bc5780601f10612591576101008083540402835291602001916125bc565b820191906000526020600020905b81548152906001019060200180831161259f57829003601f168201915b5050505050908060050160009054906101000a900463ffffffff16908060050160049054906101000a900463ffffffff16908060050160089054906101000a900460ff16905089565b61260d613104565b6000600360008473ffffffffffffffffffffffffffffffffffffffff1673ffffffffffffffffffffffffffffffffffffffff168152602001908152602001600020805490509050600360008473ffffffffffffffffffffffffffffffffffffffff1673ffffffffffffffffffffffffffffffffffffffff1681526020019081526020016000206001826126a09190614031565b815481106126b1576126b0614065565b5b90600052602060002090600702016040518060e0016040529081600082015481526020016001820180546126e490613fd1565b80601f016020809104026020016040519081016040528092919081815260200182805461271090613fd1565b801561275d5780601f106127325761010080835404028352916020019161275d565b820191906000526020600020905b81548152906001019060200180831161274057829003601f168201915b505050505081526020016002820160009054906101000a900473ffffffffffffffffffffffffffffffffffffffff1673ffffffffffffffffffffffffffffffffffffffff1673ffffffffffffffffffffffffffffffffffffffff1681526020016003820180546127cc90613fd1565b80601f01602080910402602001604051908101604052809291908181526020018280546127f890613fd1565b80156128455780601f1061281a57610100808354040283529160200191612845565b820191906000526020600020905b81548152906001019060200180831161282857829003601f168201915b5050505050815260200160048201805461285e90613fd1565b80601f016020809104026020016040519081016040528092919081815260200182805461288a90613fd1565b80156128d75780601f106128ac576101008083540402835291602001916128d7565b820191906000526020600020905b8154815290600101906020018083116128ba57829003601f168201915b505050505081526020016005820180546128f090613fd1565b80601f016020809104026020016040519081016040528092919081815260200182805461291c90613fd1565b80156129695780601f1061293e57610100808354040283529160200191612969565b820191906000526020600020905b81548152906001019060200180831161294c57829003601f168201915b505050505081526020016006820160009054906101000a900463ffffffff1663ffffffff1663ffffffff1681525050915050919050565b60006129ab836120d7565b90506000600360003373ffffffffffffffffffffffffffffffffffffffff1673ffffffffffffffffffffffffffffffffffffffff168152602001908152602001600020805490509050600360003373ffffffffffffffffffffffffffffffffffffffff1673ffffffffffffffffffffffffffffffffffffffff1681526020019081526020016000206040518060e0016040528083815260200184606001518152602001846020015173ffffffffffffffffffffffffffffffffffffffff168152602001846040015181526020018581526020016040518060200160405280600081525081526020018460c0015163ffffffff168152509080600181540180825580915050600190039060005260206000209060070201600090919091909150600082015181600001556020820151816001019081612ae99190614240565b5060408201518160020160006101000a81548173ffffffffffffffffffffffffffffffffffffffff021916908373ffffffffffffffffffffffffffffffffffffffff1602179055506060820151816003019081612b469190614240565b506080820151816004019081612b5c9190614240565b5060a0820151816005019081612b729190614240565b5060c08201518160060160006101000a81548163ffffffff021916908363ffffffff160217905550505060026000836020015173ffffffffffffffffffffffffffffffffffffffff1673ffffffffffffffffffffffffffffffffffffffff16815260200190815260200160002080549050905060026000836020015173ffffffffffffffffffffffffffffffffffffffff1673ffffffffffffffffffffffffffffffffffffffff1681526020019081526020016000206040518060e00160405280838152602001846060015181526020013373ffffffffffffffffffffffffffffffffffffffff168152602001846040015181526020018581526020016040518060200160405280600081525081526020018460c0015163ffffffff168152509080600181540180825580915050600190039060005260206000209060070201600090919091909150600082015181600001556020820151816001019081612cda9190614240565b5060408201518160020160006101000a81548173ffffffffffffffffffffffffffffffffffffffff021916908373ffffffffffffffffffffffffffffffffffffffff1602179055506060820151816003019081612d379190614240565b506080820151816004019081612d4d9190614240565b5060a0820151816005019081612d639190614240565b5060c08201518160060160006101000a81548163ffffffff021916908363ffffffff160217905550505060048260400151604051612da19190614386565b908152602001604051809103902083908060018154018082558091505060019003906000526020600020016000909190919091509081612de19190614240565b5050505050565b60405180610120016040528060008054906101000a900460ff1660ff1681526020013373ffffffffffffffffffffffffffffffffffffffff1681526020018781526020018681526020018560ff1681526020018481526020018363ffffffff1681526020018263ffffffff16815260200160011515815250600160008060009054906101000a900460ff1660ff1660ff16815260200190815260200160002060008201518160000160006101000a81548160ff021916908360ff16021790555060208201518160000160016101000a81548173ffffffffffffffffffffffffffffffffffffffff021916908373ffffffffffffffffffffffffffffffffffffffff1602179055506040820151816001019081612f049190614240565b506060820151816002019081612f1a9190614240565b5060808201518160030160006101000a81548160ff021916908360ff16021790555060a0820151816004019081612f519190614240565b5060c08201518160050160006101000a81548163ffffffff021916908363ffffffff16021790555060e08201518160050160046101000a81548163ffffffff021916908363ffffffff1602179055506101008201518160050160086101000a81548160ff02191690831515021790555090505060016000808282829054906101000a900460ff16612fe29190614647565b92506101000a81548160ff021916908360ff160217905550505050505050565b6000600360008373ffffffffffffffffffffffffffffffffffffffff1673ffffffffffffffffffffffffffffffffffffffff168152602001908152602001600020805490509050919050565b50805461305a90613fd1565b6000825580601f1061306c575061308b565b601f01602090049060005260206000209081019061308a919061315d565b5b50565b604051806101200160405280600060ff168152602001600073ffffffffffffffffffffffffffffffffffffffff1681526020016060815260200160608152602001600060ff16815260200160608152602001600063ffffffff168152602001600063ffffffff1681526020016000151581525090565b6040518060e001604052806000815260200160608152602001600073ffffffffffffffffffffffffffffffffffffffff168152602001606081526020016060815260200160608152602001600063ffffffff1681525090565b5b8082111561317657600081600090555060010161315e565b5090565b6000604051905090565b600080fd5b600080fd5b600073ffffffffffffffffffffffffffffffffffffffff82169050919050565b60006131b98261318e565b9050919050565b6131c9816131ae565b81146131d457600080fd5b50565b6000813590506131e6816131c0565b92915050565b60006020828403121561320257613201613184565b5b6000613210848285016131d7565b91505092915050565b600081519050919050565b600082825260208201905092915050565b6000819050602082019050919050565b6000819050919050565b61325881613245565b82525050565b600081519050919050565b600082825260208201905092915050565b60005b8381101561329857808201518184015260208101905061327d565b60008484015250505050565b6000601f19601f8301169050919050565b60006132c08261325e565b6132ca8185613269565b93506132da81856020860161327a565b6132e3816132a4565b840191505092915050565b6132f7816131ae565b82525050565b600063ffffffff82169050919050565b613316816132fd565b82525050565b600060e083016000830151613334600086018261324f565b506020830151848203602086015261334c82826132b5565b915050604083015161336160408601826132ee565b506060830151848203606086015261337982826132b5565b9150506080830151848203608086015261339382826132b5565b91505060a083015184820360a08601526133ad82826132b5565b91505060c08301516133c260c086018261330d565b508091505092915050565b60006133d9838361331c565b905092915050565b6000602082019050919050565b60006133f982613219565b6134038185613224565b93508360208202850161341585613235565b8060005b85811015613451578484038952815161343285826133cd565b945061343d836133e1565b925060208a01995050600181019050613419565b50829750879550505050505092915050565b6000602082019050818103600083015261347d81846133ee565b905092915050565b61348e81613245565b811461349957600080fd5b50565b6000813590506134ab81613485565b92915050565b600080604083850312156134c8576134c7613184565b5b60006134d6858286016131d7565b92505060206134e78582860161349c565b9150509250929050565b6134fa81613245565b82525050565b600082825260208201905092915050565b600061351c8261325e565b6135268185613500565b935061353681856020860161327a565b61353f816132a4565b840191505092915050565b613553816131ae565b82525050565b613562816132fd565b82525050565b600060e08201905061357d600083018a6134f1565b818103602083015261358f8189613511565b905061359e604083018861354a565b81810360608301526135b08187613511565b905081810360808301526135c48186613511565b905081810360a08301526135d88185613511565b90506135e760c0830184613559565b98975050505050505050565b600080fd5b600080fd5b7f4e487b7100000000000000000000000000000000000000000000000000000000600052604160045260246000fd5b613635826132a4565b810181811067ffffffffffffffff82111715613654576136536135fd565b5b80604052505050565b600061366761317a565b9050613673828261362c565b919050565b600067ffffffffffffffff821115613693576136926135fd565b5b61369c826132a4565b9050602081019050919050565b82818337600083830152505050565b60006136cb6136c684613678565b61365d565b9050828152602081018484840111156136e7576136e66135f8565b5b6136f28482856136a9565b509392505050565b600082601f83011261370f5761370e6135f3565b5b813561371f8482602086016136b8565b91505092915050565b613731816132fd565b811461373c57600080fd5b50565b60008135905061374e81613728565b92915050565b60008060006060848603121561376d5761376c613184565b5b600061377b868287016131d7565b935050602084013567ffffffffffffffff81111561379c5761379b613189565b5b6137a8868287016136fa565b92505060406137b98682870161373f565b9150509250925092565b6000806000606084860312156137dc576137db613184565b5b60006137ea868287016131d7565b935050602084013567ffffffffffffffff81111561380b5761380a613189565b5b613817868287016136fa565b925050604084013567ffffffffffffffff81111561383857613837613189565b5b613844868287016136fa565b9150509250925092565b600060208201905061386360008301846134f1565b92915050565b600081519050919050565b600082825260208201905092915050565b6000819050602082019050919050565b600060ff82169050919050565b6138ab81613895565b82525050565b60008115159050919050565b6138c6816138b1565b82525050565b6000610120830160008301516138e560008601826138a2565b5060208301516138f860208601826132ee565b506040830151848203604086015261391082826132b5565b9150506060830151848203606086015261392a82826132b5565b915050608083015161393f60808601826138a2565b5060a083015184820360a086015261395782826132b5565b91505060c083015161396c60c086018261330d565b5060e083015161397f60e086018261330d565b506101008301516139946101008601826138bd565b508091505092915050565b60006139ab83836138cc565b905092915050565b6000602082019050919050565b60006139cb82613869565b6139d58185613874565b9350836020820285016139e785613885565b8060005b85811015613a235784840389528151613a04858261399f565b9450613a0f836139b3565b925060208a019950506001810190506139eb565b50829750879550505050505092915050565b60006020820190508181036000830152613a4f81846139c0565b905092915050565b600060208284031215613a6d57613a6c613184565b5b600082013567ffffffffffffffff811115613a8b57613a8a613189565b5b613a97848285016136fa565b91505092915050565b600081519050919050565b600082825260208201905092915050565b6000819050602082019050919050565b6000613ad883836132b5565b905092915050565b6000602082019050919050565b6000613af882613aa0565b613b028185613aab565b935083602082028501613b1485613abc565b8060005b85811015613b505784840389528151613b318582613acc565b9450613b3c83613ae0565b925060208a01995050600181019050613b18565b50829750879550505050505092915050565b60006020820190508181036000830152613b7c8184613aed565b905092915050565b613b8d81613895565b8114613b9857600080fd5b50565b600081359050613baa81613b84565b92915050565b600060208284031215613bc657613bc5613184565b5b6000613bd484828501613b9b565b91505092915050565b600061012083016000830151613bf660008601826138a2565b506020830151613c0960208601826132ee565b5060408301518482036040860152613c2182826132b5565b91505060608301518482036060860152613c3b82826132b5565b9150506080830151613c5060808601826138a2565b5060a083015184820360a0860152613c6882826132b5565b91505060c0830151613c7d60c086018261330d565b5060e0830151613c9060e086018261330d565b50610100830151613ca56101008601826138bd565b508091505092915050565b60006020820190508181036000830152613cca8184613bdd565b905092915050565b613cdb81613895565b82525050565b613cea816138b1565b82525050565b600061012082019050613d06600083018c613cd2565b613d13602083018b61354a565b8181036040830152613d25818a613511565b90508181036060830152613d398189613511565b9050613d486080830188613cd2565b81810360a0830152613d5a8187613511565b9050613d6960c0830186613559565b613d7660e0830185613559565b613d84610100830184613ce1565b9a9950505050505050505050565b600060e083016000830151613daa600086018261324f565b5060208301518482036020860152613dc282826132b5565b9150506040830151613dd760408601826132ee565b5060608301518482036060860152613def82826132b5565b91505060808301518482036080860152613e0982826132b5565b91505060a083015184820360a0860152613e2382826132b5565b91505060c0830151613e3860c086018261330d565b508091505092915050565b60006020820190508181036000830152613e5d8184613d92565b905092915050565b60008060408385031215613e7c57613e7b613184565b5b6000613e8a85828601613b9b565b925050602083013567ffffffffffffffff811115613eab57613eaa613189565b5b613eb7858286016136fa565b9150509250929050565b60008060008060008060c08789031215613ede57613edd613184565b5b600087013567ffffffffffffffff811115613efc57613efb613189565b5b613f0889828a016136fa565b965050602087013567ffffffffffffffff811115613f2957613f28613189565b5b613f3589828a016136fa565b9550506040613f4689828a01613b9b565b945050606087013567ffffffffffffffff811115613f6757613f66613189565b5b613f7389828a016136fa565b9350506080613f8489828a0161373f565b92505060a0613f9589828a0161373f565b9150509295509295509295565b7f4e487b7100000000000000000000000000000000000000000000000000000000600052602260045260246000fd5b60006002820490506001821680613fe957607f821691505b602082108103613ffc57613ffb613fa2565b5b50919050565b7f4e487b7100000000000000000000000000000000000000000000000000000000600052601160045260246000fd5b600061403c82613245565b915061404783613245565b925082820390508181111561405f5761405e614002565b5b92915050565b7f4e487b7100000000000000000000000000000000000000000000000000000000600052603260045260246000fd5b60008190508160005260206000209050919050565b60006020601f8301049050919050565b600082821b905092915050565b6000600883026140f67fffffffffffffffffffffffffffffffffffffffffffffffffffffffffffffffff826140b9565b61410086836140b9565b95508019841693508086168417925050509392505050565b6000819050919050565b600061413d61413861413384613245565b614118565b613245565b9050919050565b6000819050919050565b61415783614122565b61416b61416382614144565b8484546140c6565b825550505050565b600090565b614180614173565b61418b81848461414e565b505050565b5b818110156141af576141a4600082614178565b600181019050614191565b5050565b601f8211156141f4576141c581614094565b6141ce846140a9565b810160208510156141dd578190505b6141f16141e9856140a9565b830182614190565b50505b505050565b600082821c905092915050565b6000614217600019846008026141f9565b1980831691505092915050565b60006142308383614206565b9150826002028217905092915050565b6142498261325e565b67ffffffffffffffff811115614262576142616135fd565b5b61426c8254613fd1565b6142778282856141b3565b600060209050601f8311600181146142aa5760008415614298578287015190505b6142a28582614224565b86555061430a565b601f1984166142b886614094565b60005b828110156142e0578489015182556001820191506020850194506020810190506142bb565b868310156142fd57848901516142f9601f891682614206565b8355505b6001600288020188555050505b505050505050565b600061431d826132fd565b9150614328836132fd565b9250828201905063ffffffff81111561434457614343614002565b5b92915050565b600081905092915050565b60006143608261325e565b61436a818561434a565b935061437a81856020860161327a565b80840191505092915050565b60006143928284614355565b915081905092915050565b600081905092915050565b60008190508160005260206000209050919050565b600081546143ca81613fd1565b6143d4818661439d565b945060018216600081146143ef576001811461440457614437565b60ff1983168652811515820286019350614437565b61440d856143a8565b60005b8381101561442f57815481890152600182019150602081019050614410565b838801955050505b50505092915050565b600061444c82846143bd565b915081905092915050565b60008154905061446681613fd1565b9050919050565b60008190508160005260206000209050919050565b818103614490575050614568565b61449982614457565b67ffffffffffffffff8111156144b2576144b16135fd565b5b6144bc8254613fd1565b6144c78282856141b3565b6000601f8311600181146144f657600084156144e4578287015490505b6144ee8582614224565b865550614561565b601f1984166145048761446d565b965061450f86614094565b60005b8281101561453757848901548255600182019150600185019450602081019050614512565b868310156145545784890154614550601f891682614206565b8355505b6001600288020188555050505b5050505050505b565b600061457582613245565b91507fffffffffffffffffffffffffffffffffffffffffffffffffffffffffffffffff82036145a7576145a6614002565b5b600182019050919050565b7f4e6f206d61746368696e67206c656e6420696e64657820666f756e6400000000600082015250565b60006145e8601c83613500565b91506145f3826145b2565b602082019050919050565b60006020820190508181036000830152614617816145db565b9050919050565b600061462982613895565b915060ff820361463c5761463b614002565b5b600182019050919050565b600061465282613895565b915061465d83613895565b9250828201905060ff81111561467657614675614002565b5b9291505056fea2646970667358221220b469ccb19fc296e8a2b06be59c44af3c372a28d8050a2443c7527314cf8f1e1964736f6c63430008130033",
  "immutableReferences": {},
  "source": "// SPDX-License-Identifier: UNLICENSED\r\npragma solidity ^0.8.0;\r\n\r\ncontract CarSharing {\r\n    \r\n    struct Car {\r\n        uint8 idx;\r\n        address owner;\r\n        string carNumber;\r\n        string modelName;\r\n\r\n        uint8 dayOfWeek;\r\n        string location;\r\n        uint32 rentalFee;\r\n        uint32 drivingFee;\r\n        bool isRentable;\r\n    }\r\n    uint8 private carCnt = 0;\r\n    mapping(uint8 => Car) public cars;\r\n\r\n    struct RenInfo {\r\n        uint256 idx;\r\n        string modelName;\r\n        address addr;\r\n        string carNumber;\r\n        string rentalDate;\r\n        string returnDate;\r\n        uint32 totalFee;\r\n        // uint32 rentalFee;\r\n        // uint32 drivingFee;\r\n        // string txHash1;\r\n        // string txHash2;\r\n    }\r\n    mapping(address => RenInfo[]) public accountLend; \r\n    mapping(address => RenInfo[]) public accountBorrow; \r\n    mapping(string => string[]) private carNumberRen;\r\n\r\n    function addCar(string memory _carNumber, string memory _modelName, uint8 _dayOfWeek, string memory _location, uint32 _rentalFee, uint32 _drivingFee) public {\r\n        cars[carCnt] = Car({\r\n            idx: carCnt,\r\n            owner: msg.sender,\r\n            carNumber: _carNumber,\r\n            modelName: _modelName,\r\n            dayOfWeek: _dayOfWeek,\r\n            location: _location,\r\n            rentalFee: _rentalFee,\r\n            drivingFee: _drivingFee,\r\n            isRentable: true\r\n        });\r\n        carCnt += 1;\r\n    }\r\n    \r\n    function modifyCar(uint8 _idx) public {\r\n    // function modifyCar(uint8 _idx, uint8 _dayOfWeek, string memory _location, uint32 _rentalFee, uint32 _drivingFee, bool _isRentable) public {\r\n        // cars[_idx].dayOfWeek = _dayOfWeek;\r\n        // cars[_idx].location = _location;\r\n        // cars[_idx].rentalFee = _rentalFee;\r\n        // cars[_idx].drivingFee = _drivingFee;\r\n        cars[_idx].isRentable = !cars[_idx].isRentable;\r\n    }\r\n\r\n    function getCar(uint8 _idx) public view returns (Car memory) {\r\n        return cars[_idx];\r\n    }\r\n\r\n    function getAllCars() public view returns (Car[] memory) {\r\n        Car[] memory ret = new Car[](carCnt);\r\n        for (uint8 i = 0; i < carCnt; i++) {\r\n            ret[i] = cars[i];\r\n        }\r\n        return ret;\r\n    }\r\n\r\n    function startRental(uint8 _idx, string memory _rentalDate) public {\r\n        Car memory c = getCar(_idx);\r\n        // borrow\r\n        uint256 length = accountBorrow[msg.sender].length;\r\n        accountBorrow[msg.sender].push(RenInfo(length, c.modelName, c.owner, c.carNumber, _rentalDate, \"\", c.rentalFee));\r\n        \r\n        // lend\r\n        length = accountLend[c.owner].length;\r\n        accountLend[c.owner].push(RenInfo(length, c.modelName, msg.sender, c.carNumber, _rentalDate, \"\", c.rentalFee));\r\n\r\n        carNumberRen[c.carNumber].push(_rentalDate);\r\n    }\r\n\r\n    function endRental(address _sender, string memory _returnDate, uint32 _drivingFee) public {\r\n        uint256 length = accountBorrow[_sender].length;\r\n        RenInfo memory ren = accountBorrow[_sender][length-1];\r\n\r\n        uint256 lendIdx = getLendIdx(ren.addr, ren.carNumber, ren.rentalDate);\r\n        accountBorrow[_sender][length-1].returnDate = _returnDate;\r\n        accountBorrow[_sender][length-1].totalFee += _drivingFee;\r\n        accountLend[ren.addr][lendIdx].returnDate = _returnDate;\r\n        accountLend[ren.addr][lendIdx].totalFee += _drivingFee;\r\n    }\r\n\r\n    function getAllRenDates(string memory _carNumber) public view returns (string[] memory) {\r\n        return carNumberRen[_carNumber];\r\n    }\r\n\r\n    function getAccountBorrowLength(address _addr) public view returns(uint256) {\r\n        return accountBorrow[_addr].length;\r\n    }\r\n\r\n    function getBorrow(address _addr) public view returns(RenInfo memory) { \r\n        uint256 length = accountBorrow[_addr].length;\r\n        return accountBorrow[_addr][length-1];\r\n    }\r\n\r\n    function getLendIdx(address _addr, string memory _carNumber, string memory _rentalDate) public view returns(uint256) {\r\n        for (uint256 i = 0; i < accountLend[_addr].length; i++) {\r\n            if (bytes(accountLend[_addr][i].returnDate).length != 0) continue; //   \r\n            if (keccak256(bytes(accountLend[_addr][i].carNumber)) != keccak256(bytes(_carNumber))) continue;\r\n            if (keccak256(bytes(accountLend[_addr][i].rentalDate)) != keccak256(bytes(_rentalDate))) continue;\r\n            return i;\r\n        }\r\n        revert(\"No matching lend index found\");\r\n    }\r\n\r\n    function getAllBorrow(address _addr) public view returns(RenInfo[] memory) { \r\n        return accountBorrow[_addr];\r\n    }\r\n\r\n    function getAllLend(address _addr) public view returns(RenInfo[] memory) { \r\n        return accountLend[_addr];\r\n    }\r\n\r\n    function cancelRental(address _sender) public {\r\n        RenInfo memory ren = getBorrow(_sender);\r\n        uint256 length = carNumberRen[ren.carNumber].length;\r\n        for (uint256 i = 0; i < length; i++) {\r\n            if (keccak256(bytes(carNumberRen[ren.carNumber][i])) == keccak256(bytes(ren.rentalDate))) {\r\n                carNumberRen[ren.carNumber][i] = carNumberRen[ren.carNumber][length-1];\r\n                delete carNumberRen[ren.carNumber][length-1];\r\n                break;\r\n            }\r\n        }\r\n\r\n        length = accountBorrow[_sender].length;\r\n        uint256 lendIdx = getLendIdx(ren.addr, ren.carNumber, ren.rentalDate);\r\n        delete accountBorrow[_sender][length-1];\r\n        delete accountLend[ren.addr][lendIdx];\r\n    }\r\n}\r\n",
  "sourcePath": "C:\\project\\contracts\\CarSharing.sol",
  "compiler": {
    "name": "solc",
    "version": "0.8.19+commit.7dd6d404.Emscripten.clang"
  },
  "schemaVersion": "3.4.14",
  "updatedAt": "2023-06-10T23:07:28.756Z",
  "networkType": "ethereum",
  "devdoc": {
    "kind": "dev",
    "methods": {},
    "version": 1
  },
  "userdoc": {
    "kind": "user",
    "methods": {},
    "version": 1
  }
}