{
  "contractName": "CarSharing",
  "abi": [
    {
      "inputs": [
        {
          "internalType": "uint8",
          "name": "",
          "type": "uint8"
        }
      ],
      "name": "cars",
      "outputs": [
        {
          "internalType": "uint8",
          "name": "idx",
          "type": "uint8"
        },
        {
          "internalType": "address",
          "name": "owner",
          "type": "address"
        },
        {
          "internalType": "string",
          "name": "carNumber",
          "type": "string"
        },
        {
          "internalType": "uint8",
          "name": "dayOfWeek",
          "type": "uint8"
        },
        {
          "internalType": "uint32",
          "name": "rentalFee",
          "type": "uint32"
        },
        {
          "internalType": "uint32",
          "name": "drivingFee",
          "type": "uint32"
        },
        {
          "internalType": "string",
          "name": "modelName",
          "type": "string"
        },
        {
          "internalType": "string",
          "name": "location",
          "type": "string"
        },
        {
          "internalType": "uint64",
          "name": "registrationDate",
          "type": "uint64"
        }
      ],
      "stateMutability": "view",
      "type": "function",
      "constant": true
    },
    {
      "inputs": [
        {
          "internalType": "string",
          "name": "_carNumber",
          "type": "string"
        },
        {
          "internalType": "string",
          "name": "_modelName",
          "type": "string"
        },
        {
          "internalType": "uint8",
          "name": "_dayOfWeek",
          "type": "uint8"
        },
        {
          "internalType": "string",
          "name": "_location",
          "type": "string"
        },
        {
          "internalType": "uint32",
          "name": "_rentalFee",
          "type": "uint32"
        },
        {
          "internalType": "uint32",
          "name": "_drivingFee",
          "type": "uint32"
        },
        {
          "internalType": "uint64",
          "name": "_registrationDate",
          "type": "uint64"
        }
      ],
      "name": "addCar",
      "outputs": [],
      "stateMutability": "nonpayable",
      "type": "function"
    },
    {
      "inputs": [
        {
          "internalType": "uint8",
          "name": "_idx",
          "type": "uint8"
        }
      ],
      "name": "deleteCar",
      "outputs": [],
      "stateMutability": "nonpayable",
      "type": "function"
    },
    {
      "inputs": [
        {
          "internalType": "uint8",
          "name": "_idx",
          "type": "uint8"
        }
      ],
      "name": "getCar",
      "outputs": [
        {
          "components": [
            {
              "internalType": "uint8",
              "name": "idx",
              "type": "uint8"
            },
            {
              "internalType": "address",
              "name": "owner",
              "type": "address"
            },
            {
              "internalType": "string",
              "name": "carNumber",
              "type": "string"
            },
            {
              "internalType": "uint8",
              "name": "dayOfWeek",
              "type": "uint8"
            },
            {
              "internalType": "uint32",
              "name": "rentalFee",
              "type": "uint32"
            },
            {
              "internalType": "uint32",
              "name": "drivingFee",
              "type": "uint32"
            },
            {
              "internalType": "string",
              "name": "modelName",
              "type": "string"
            },
            {
              "internalType": "string",
              "name": "location",
              "type": "string"
            },
            {
              "internalType": "uint64",
              "name": "registrationDate",
              "type": "uint64"
            }
          ],
          "internalType": "struct CarSharing.Car",
          "name": "",
          "type": "tuple"
        }
      ],
      "stateMutability": "view",
      "type": "function",
      "constant": true
    },
    {
      "inputs": [],
      "name": "getAllCars",
      "outputs": [
        {
          "components": [
            {
              "internalType": "uint8",
              "name": "idx",
              "type": "uint8"
            },
            {
              "internalType": "address",
              "name": "owner",
              "type": "address"
            },
            {
              "internalType": "string",
              "name": "carNumber",
              "type": "string"
            },
            {
              "internalType": "uint8",
              "name": "dayOfWeek",
              "type": "uint8"
            },
            {
              "internalType": "uint32",
              "name": "rentalFee",
              "type": "uint32"
            },
            {
              "internalType": "uint32",
              "name": "drivingFee",
              "type": "uint32"
            },
            {
              "internalType": "string",
              "name": "modelName",
              "type": "string"
            },
            {
              "internalType": "string",
              "name": "location",
              "type": "string"
            },
            {
              "internalType": "uint64",
              "name": "registrationDate",
              "type": "uint64"
            }
          ],
          "internalType": "struct CarSharing.Car[]",
          "name": "",
          "type": "tuple[]"
        }
      ],
      "stateMutability": "view",
      "type": "function",
      "constant": true
    },
    {
      "inputs": [
        {
          "internalType": "string",
          "name": "_carNumber",
          "type": "string"
        },
        {
          "internalType": "string",
          "name": "_date",
          "type": "string"
        }
      ],
      "name": "addReservation",
      "outputs": [],
      "stateMutability": "nonpayable",
      "type": "function"
    },
    {
      "inputs": [
        {
          "internalType": "string",
          "name": "_carNumber",
          "type": "string"
        }
      ],
      "name": "getReservedDates",
      "outputs": [
        {
          "internalType": "string[]",
          "name": "",
          "type": "string[]"
        }
      ],
      "stateMutability": "view",
      "type": "function",
      "constant": true
    }
  ],
  "bytecode": "0x608060405260008060006101000a81548160ff021916908360ff16021790555034801561002b57600080fd5b5061210d8061003b6000396000f3fe608060405234801561001057600080fd5b506004361061007d5760003560e01c8063c466eb061161005b578063c466eb06146100d8578063c572524114610108578063e208581c14610140578063f7a0adc91461015c5761007d565b80633cfcd87a1461008257806353a409491461009e578063abfe5d57146100ba575b600080fd5b61009c60048036038101906100979190611262565b61018c565b005b6100b860048036038101906100b391906113d5565b6104c3565b005b6100c2610518565b6040516100cf91906116f3565b60405180910390f35b6100f260048036038101906100ed9190611262565b6108c6565b6040516100ff91906117e8565b60405180910390f35b610122600480360381019061011d9190611262565b610bbe565b60405161013799989796959493929190611890565b60405180910390f35b61015a6004803603810190610155919061198a565b610e12565b005b61017660048036038101906101719190611a80565b611043565b6040516101839190611b8b565b60405180910390f35b60016000600160008054906101000a900460ff166101aa9190611bdc565b60ff1660ff168152602001908152602001600020600160008360ff1660ff1681526020019081526020016000206000820160009054906101000a900460ff168160000160006101000a81548160ff021916908360ff1602179055506000820160019054906101000a900473ffffffffffffffffffffffffffffffffffffffff168160000160016101000a81548173ffffffffffffffffffffffffffffffffffffffff021916908373ffffffffffffffffffffffffffffffffffffffff160217905550600182018160010190816102809190611e3d565b506002820160009054906101000a900460ff168160020160006101000a81548160ff021916908360ff1602179055506002820160019054906101000a900463ffffffff168160020160016101000a81548163ffffffff021916908363ffffffff1602179055506002820160059054906101000a900463ffffffff168160020160056101000a81548163ffffffff021916908363ffffffff160217905550600382018160030190816103319190611e3d565b50600482018160040190816103469190611e3d565b506005820160009054906101000a900467ffffffffffffffff168160050160006101000a81548167ffffffffffffffff021916908367ffffffffffffffff16021790555090505060016000600160008054906101000a900460ff166103ab9190611bdc565b60ff1660ff168152602001908152602001600020600080820160006101000a81549060ff02191690556000820160016101000a81549073ffffffffffffffffffffffffffffffffffffffff021916905560018201600061040b919061113a565b6002820160006101000a81549060ff02191690556002820160016101000a81549063ffffffff02191690556002820160056101000a81549063ffffffff021916905560038201600061045d919061113a565b60048201600061046d919061113a565b6005820160006101000a81549067ffffffffffffffff0219169055505060016000808282829054906101000a900460ff166104a89190611bdc565b92506101000a81548160ff021916908360ff16021790555050565b6002826040516104d39190611f61565b9081526020016040518091039020819080600181540180825580915050600190039060005260206000200160009091909190915090816105139190611f78565b505050565b606060008060009054906101000a900460ff1660ff1667ffffffffffffffff811115610547576105466112aa565b5b60405190808252806020026020018201604052801561058057816020015b61056d61117a565b8152602001906001900390816105655790505b50905060005b60008054906101000a900460ff1660ff168160ff1610156108be57600160008260ff1660ff168152602001908152602001600020604051806101200160405290816000820160009054906101000a900460ff1660ff1660ff1681526020016000820160019054906101000a900473ffffffffffffffffffffffffffffffffffffffff1673ffffffffffffffffffffffffffffffffffffffff1673ffffffffffffffffffffffffffffffffffffffff16815260200160018201805461064990611c40565b80601f016020809104026020016040519081016040528092919081815260200182805461067590611c40565b80156106c25780601f10610697576101008083540402835291602001916106c2565b820191906000526020600020905b8154815290600101906020018083116106a557829003601f168201915b505050505081526020016002820160009054906101000a900460ff1660ff1660ff1681526020016002820160019054906101000a900463ffffffff1663ffffffff1663ffffffff1681526020016002820160059054906101000a900463ffffffff1663ffffffff1663ffffffff16815260200160038201805461074490611c40565b80601f016020809104026020016040519081016040528092919081815260200182805461077090611c40565b80156107bd5780601f10610792576101008083540402835291602001916107bd565b820191906000526020600020905b8154815290600101906020018083116107a057829003601f168201915b505050505081526020016004820180546107d690611c40565b80601f016020809104026020016040519081016040528092919081815260200182805461080290611c40565b801561084f5780601f106108245761010080835404028352916020019161084f565b820191906000526020600020905b81548152906001019060200180831161083257829003601f168201915b505050505081526020016005820160009054906101000a900467ffffffffffffffff1667ffffffffffffffff1667ffffffffffffffff1681525050828260ff16815181106108a05761089f61204a565b5b602002602001018190525080806108b690612079565b915050610586565b508091505090565b6108ce61117a565b600160008360ff1660ff168152602001908152602001600020604051806101200160405290816000820160009054906101000a900460ff1660ff1660ff1681526020016000820160019054906101000a900473ffffffffffffffffffffffffffffffffffffffff1673ffffffffffffffffffffffffffffffffffffffff1673ffffffffffffffffffffffffffffffffffffffff16815260200160018201805461097690611c40565b80601f01602080910402602001604051908101604052809291908181526020018280546109a290611c40565b80156109ef5780601f106109c4576101008083540402835291602001916109ef565b820191906000526020600020905b8154815290600101906020018083116109d257829003601f168201915b505050505081526020016002820160009054906101000a900460ff1660ff1660ff1681526020016002820160019054906101000a900463ffffffff1663ffffffff1663ffffffff1681526020016002820160059054906101000a900463ffffffff1663ffffffff1663ffffffff168152602001600382018054610a7190611c40565b80601f0160208091040260200160405190810160405280929190818152602001828054610a9d90611c40565b8015610aea5780601f10610abf57610100808354040283529160200191610aea565b820191906000526020600020905b815481529060010190602001808311610acd57829003601f168201915b50505050508152602001600482018054610b0390611c40565b80601f0160208091040260200160405190810160405280929190818152602001828054610b2f90611c40565b8015610b7c5780601f10610b5157610100808354040283529160200191610b7c565b820191906000526020600020905b815481529060010190602001808311610b5f57829003601f168201915b505050505081526020016005820160009054906101000a900467ffffffffffffffff1667ffffffffffffffff1667ffffffffffffffff16815250509050919050565b60016020528060005260406000206000915090508060000160009054906101000a900460ff16908060000160019054906101000a900473ffffffffffffffffffffffffffffffffffffffff1690806001018054610c1a90611c40565b80601f0160208091040260200160405190810160405280929190818152602001828054610c4690611c40565b8015610c935780601f10610c6857610100808354040283529160200191610c93565b820191906000526020600020905b815481529060010190602001808311610c7657829003601f168201915b5050505050908060020160009054906101000a900460ff16908060020160019054906101000a900463ffffffff16908060020160059054906101000a900463ffffffff1690806003018054610ce790611c40565b80601f0160208091040260200160405190810160405280929190818152602001828054610d1390611c40565b8015610d605780601f10610d3557610100808354040283529160200191610d60565b820191906000526020600020905b815481529060010190602001808311610d4357829003601f168201915b505050505090806004018054610d7590611c40565b80601f0160208091040260200160405190810160405280929190818152602001828054610da190611c40565b8015610dee5780601f10610dc357610100808354040283529160200191610dee565b820191906000526020600020905b815481529060010190602001808311610dd157829003601f168201915b5050505050908060050160009054906101000a900467ffffffffffffffff16905089565b60405180610120016040528060008054906101000a900460ff1660ff1681526020013373ffffffffffffffffffffffffffffffffffffffff1681526020018881526020018660ff1681526020018463ffffffff1681526020018363ffffffff1681526020018781526020018581526020018267ffffffffffffffff16815250600160008060009054906101000a900460ff1660ff1660ff16815260200190815260200160002060008201518160000160006101000a81548160ff021916908360ff16021790555060208201518160000160016101000a81548173ffffffffffffffffffffffffffffffffffffffff021916908373ffffffffffffffffffffffffffffffffffffffff1602179055506040820151816001019081610f359190611f78565b5060608201518160020160006101000a81548160ff021916908360ff16021790555060808201518160020160016101000a81548163ffffffff021916908363ffffffff16021790555060a08201518160020160056101000a81548163ffffffff021916908363ffffffff16021790555060c0820151816003019081610fba9190611f78565b5060e0820151816004019081610fd09190611f78565b506101008201518160050160006101000a81548167ffffffffffffffff021916908367ffffffffffffffff16021790555090505060016000808282829054906101000a900460ff1661102291906120a2565b92506101000a81548160ff021916908360ff16021790555050505050505050565b60606002826040516110559190611f61565b9081526020016040518091039020805480602002602001604051908101604052809291908181526020016000905b8282101561112f5783829060005260206000200180546110a290611c40565b80601f01602080910402602001604051908101604052809291908181526020018280546110ce90611c40565b801561111b5780601f106110f05761010080835404028352916020019161111b565b820191906000526020600020905b8154815290600101906020018083116110fe57829003601f168201915b505050505081526020019060010190611083565b505050509050919050565b50805461114690611c40565b6000825580601f106111585750611177565b601f01602090049060005260206000209081019061117691906111f8565b5b50565b604051806101200160405280600060ff168152602001600073ffffffffffffffffffffffffffffffffffffffff16815260200160608152602001600060ff168152602001600063ffffffff168152602001600063ffffffff1681526020016060815260200160608152602001600067ffffffffffffffff1681525090565b5b808211156112115760008160009055506001016111f9565b5090565b6000604051905090565b600080fd5b600080fd5b600060ff82169050919050565b61123f81611229565b811461124a57600080fd5b50565b60008135905061125c81611236565b92915050565b6000602082840312156112785761127761121f565b5b60006112868482850161124d565b91505092915050565b600080fd5b600080fd5b6000601f19601f8301169050919050565b7f4e487b7100000000000000000000000000000000000000000000000000000000600052604160045260246000fd5b6112e282611299565b810181811067ffffffffffffffff82111715611301576113006112aa565b5b80604052505050565b6000611314611215565b905061132082826112d9565b919050565b600067ffffffffffffffff8211156113405761133f6112aa565b5b61134982611299565b9050602081019050919050565b82818337600083830152505050565b600061137861137384611325565b61130a565b90508281526020810184848401111561139457611393611294565b5b61139f848285611356565b509392505050565b600082601f8301126113bc576113bb61128f565b5b81356113cc848260208601611365565b91505092915050565b600080604083850312156113ec576113eb61121f565b5b600083013567ffffffffffffffff81111561140a57611409611224565b5b611416858286016113a7565b925050602083013567ffffffffffffffff81111561143757611436611224565b5b611443858286016113a7565b9150509250929050565b600081519050919050565b600082825260208201905092915050565b6000819050602082019050919050565b61148281611229565b82525050565b600073ffffffffffffffffffffffffffffffffffffffff82169050919050565b60006114b382611488565b9050919050565b6114c3816114a8565b82525050565b600081519050919050565b600082825260208201905092915050565b60005b838110156115035780820151818401526020810190506114e8565b60008484015250505050565b600061151a826114c9565b61152481856114d4565b93506115348185602086016114e5565b61153d81611299565b840191505092915050565b600063ffffffff82169050919050565b61156181611548565b82525050565b600067ffffffffffffffff82169050919050565b61158481611567565b82525050565b6000610120830160008301516115a36000860182611479565b5060208301516115b660208601826114ba565b50604083015184820360408601526115ce828261150f565b91505060608301516115e36060860182611479565b5060808301516115f66080860182611558565b5060a083015161160960a0860182611558565b5060c083015184820360c0860152611621828261150f565b91505060e083015184820360e086015261163b828261150f565b91505061010083015161165261010086018261157b565b508091505092915050565b6000611669838361158a565b905092915050565b6000602082019050919050565b60006116898261144d565b6116938185611458565b9350836020820285016116a585611469565b8060005b858110156116e157848403895281516116c2858261165d565b94506116cd83611671565b925060208a019950506001810190506116a9565b50829750879550505050505092915050565b6000602082019050818103600083015261170d818461167e565b905092915050565b60006101208301600083015161172e6000860182611479565b50602083015161174160208601826114ba565b5060408301518482036040860152611759828261150f565b915050606083015161176e6060860182611479565b5060808301516117816080860182611558565b5060a083015161179460a0860182611558565b5060c083015184820360c08601526117ac828261150f565b91505060e083015184820360e08601526117c6828261150f565b9150506101008301516117dd61010086018261157b565b508091505092915050565b600060208201905081810360008301526118028184611715565b905092915050565b61181381611229565b82525050565b611822816114a8565b82525050565b600082825260208201905092915050565b6000611844826114c9565b61184e8185611828565b935061185e8185602086016114e5565b61186781611299565b840191505092915050565b61187b81611548565b82525050565b61188a81611567565b82525050565b6000610120820190506118a6600083018c61180a565b6118b3602083018b611819565b81810360408301526118c5818a611839565b90506118d4606083018961180a565b6118e16080830188611872565b6118ee60a0830187611872565b81810360c08301526119008186611839565b905081810360e08301526119148185611839565b9050611924610100830184611881565b9a9950505050505050505050565b61193b81611548565b811461194657600080fd5b50565b60008135905061195881611932565b92915050565b61196781611567565b811461197257600080fd5b50565b6000813590506119848161195e565b92915050565b600080600080600080600060e0888a0312156119a9576119a861121f565b5b600088013567ffffffffffffffff8111156119c7576119c6611224565b5b6119d38a828b016113a7565b975050602088013567ffffffffffffffff8111156119f4576119f3611224565b5b611a008a828b016113a7565b9650506040611a118a828b0161124d565b955050606088013567ffffffffffffffff811115611a3257611a31611224565b5b611a3e8a828b016113a7565b9450506080611a4f8a828b01611949565b93505060a0611a608a828b01611949565b92505060c0611a718a828b01611975565b91505092959891949750929550565b600060208284031215611a9657611a9561121f565b5b600082013567ffffffffffffffff811115611ab457611ab3611224565b5b611ac0848285016113a7565b91505092915050565b600081519050919050565b600082825260208201905092915050565b6000819050602082019050919050565b6000611b01838361150f565b905092915050565b6000602082019050919050565b6000611b2182611ac9565b611b2b8185611ad4565b935083602082028501611b3d85611ae5565b8060005b85811015611b795784840389528151611b5a8582611af5565b9450611b6583611b09565b925060208a01995050600181019050611b41565b50829750879550505050505092915050565b60006020820190508181036000830152611ba58184611b16565b905092915050565b7f4e487b7100000000000000000000000000000000000000000000000000000000600052601160045260246000fd5b6000611be782611229565b9150611bf283611229565b9250828203905060ff811115611c0b57611c0a611bad565b5b92915050565b7f4e487b7100000000000000000000000000000000000000000000000000000000600052602260045260246000fd5b60006002820490506001821680611c5857607f821691505b602082108103611c6b57611c6a611c11565b5b50919050565b600081549050611c8081611c40565b9050919050565b60008190508160005260206000209050919050565b60006020601f8301049050919050565b600082821b905092915050565b600060088302611ce97fffffffffffffffffffffffffffffffffffffffffffffffffffffffffffffffff82611cac565b611cf38683611cac565b95508019841693508086168417925050509392505050565b6000819050919050565b6000819050919050565b6000611d3a611d35611d3084611d0b565b611d15565b611d0b565b9050919050565b6000819050919050565b611d5483611d1f565b611d68611d6082611d41565b848454611cb9565b825550505050565b600090565b611d7d611d70565b611d88818484611d4b565b505050565b5b81811015611dac57611da1600082611d75565b600181019050611d8e565b5050565b601f821115611df157611dc281611c87565b611dcb84611c9c565b81016020851015611dda578190505b611dee611de685611c9c565b830182611d8d565b50505b505050565b600082821c905092915050565b6000611e1460001984600802611df6565b1980831691505092915050565b6000611e2d8383611e03565b9150826002028217905092915050565b818103611e4b575050611f23565b611e5482611c71565b67ffffffffffffffff811115611e6d57611e6c6112aa565b5b611e778254611c40565b611e82828285611db0565b6000601f831160018114611eb15760008415611e9f578287015490505b611ea98582611e21565b865550611f1c565b601f198416611ebf87611c87565b9650611eca86611c87565b60005b82811015611ef257848901548255600182019150600185019450602081019050611ecd565b86831015611f0f5784890154611f0b601f891682611e03565b8355505b6001600288020188555050505b5050505050505b565b600081905092915050565b6000611f3b826114c9565b611f458185611f25565b9350611f558185602086016114e5565b80840191505092915050565b6000611f6d8284611f30565b915081905092915050565b611f81826114c9565b67ffffffffffffffff811115611f9a57611f996112aa565b5b611fa48254611c40565b611faf828285611db0565b600060209050601f831160018114611fe25760008415611fd0578287015190505b611fda8582611e21565b865550612042565b601f198416611ff086611c87565b60005b8281101561201857848901518255600182019150602085019450602081019050611ff3565b868310156120355784890151612031601f891682611e03565b8355505b6001600288020188555050505b505050505050565b7f4e487b7100000000000000000000000000000000000000000000000000000000600052603260045260246000fd5b600061208482611229565b915060ff820361209757612096611bad565b5b600182019050919050565b60006120ad82611229565b91506120b883611229565b9250828201905060ff8111156120d1576120d0611bad565b5b9291505056fea26469706673582212209b0dabe5476e408ff6d6ef47c8eb4c71c3cc73af58590f082070270361184abd64736f6c63430008130033",
  "immutableReferences": {},
  "source": "// SPDX-License-Identifier: UNLICENSED\r\npragma solidity ^0.8.0;\r\n\r\ncontract CarSharing {\r\n    \r\n    struct Car {\r\n        uint8 idx;\r\n        address owner;\r\n        string carNumber;\r\n        uint8 dayOfWeek;\r\n        uint32 rentalFee;\r\n        uint32 drivingFee;\r\n        string modelName;\r\n        string location;\r\n        uint64 registrationDate;\r\n        // string manufacturer;  \r\n    }\r\n\r\n    struct Reservation {\r\n        string[] carNumberArr;\r\n    }\r\n    \r\n    uint8 private carCnt = 0;\r\n\r\n    mapping(uint8 => Car) public cars;\r\n    // mapping(string => Reservation) private reservations; \r\n    mapping(string => string[]) private reservations;\r\n\r\n    function addCar(string memory _carNumber, string memory _modelName, uint8 _dayOfWeek, string memory _location, uint32 _rentalFee, uint32 _drivingFee, uint64 _registrationDate) public {\r\n        cars[carCnt] = Car({\r\n            idx: carCnt,\r\n            owner: msg.sender,\r\n            carNumber: _carNumber,\r\n            modelName: _modelName,\r\n            dayOfWeek: _dayOfWeek,\r\n            location: _location,\r\n            rentalFee: _rentalFee,\r\n            drivingFee: _drivingFee,\r\n            registrationDate: _registrationDate\r\n        });\r\n        carCnt += 1;\r\n    }\r\n\r\n    function deleteCar(uint8 _idx) public {\r\n        cars[_idx] = cars[carCnt-1];\r\n        delete cars[carCnt-1];\r\n        carCnt -= 1;\r\n    }\r\n\r\n    function getCar(uint8 _idx) public view returns (Car memory) {\r\n        return cars[_idx];\r\n    }\r\n\r\n    function getAllCars() public view returns (Car[] memory) {\r\n        Car[] memory ret = new Car[](carCnt);\r\n        for (uint8 i = 0; i < carCnt; i++) {\r\n            ret[i] = cars[i];\r\n        }\r\n        return ret;\r\n    }\r\n\r\n    function addReservation(string memory _carNumber, string memory _date) public {\r\n        reservations[_carNumber].push(_date);\r\n    }\r\n\r\n    function getReservedDates(string memory _carNumber) public view returns (string[] memory) {\r\n        return reservations[_carNumber];\r\n    }\r\n\r\n    // function isReservationAvailable(uint32 _date, string memory _carNumber) public view returns (bool){\r\n    //     string[] memory carNumberArr = reservations[_date].carNumberArr;\r\n    //     for (uint i = 0; i < carNumberArr.length; i++) {\r\n    //         if (keccak256(bytes(carNumberArr[i])) == keccak256(bytes(_carNumber))) {\r\n    //             return false;\r\n    //         }\r\n    //     }\r\n    //     return true;\r\n    // }\r\n\r\n    // function getReservableCars(uint32 _date, uint8 _day) public view returns (Car[] memory) {\r\n    //     Car[] memory ret = new Car[](carCnt);\r\n    //     for (uint8 i = 0; i < carCnt; i++) {\r\n    //         if (isReservationAvailable(_date, cars[i].carNumber) == false) continue;\r\n    //         if (cars[i].dayOfWeek & (1 << (6-_day)) > 0) {\r\n    //             ret[i] = cars[i];\r\n    //         }\r\n    //     }\r\n    //     return ret;\r\n    // }\r\n}\r\n// pragma solidity ^0.8.0;\r\n\r\n// contract CarSharing {\r\n//     int private count = 0;\r\n    \r\n//     struct Car {\r\n//         uint256 carId;\r\n//         address owner;\r\n//         string model;\r\n//     }\r\n//     uint256 private carCnt = 0;\r\n\r\n//     mapping(uint256 => Car) public cars;\r\n\r\n//     // function addCar() public payable {\r\n//     //     cars[carCnt] = Car({\r\n//     //         carId: carCnt,\r\n//     //         owner: msg.sender\r\n//     //     });\r\n//     //     carCnt += 1;\r\n//     // }\r\n\r\n//     function incrementCounter(string memory _model) public {\r\n//         cars[carCnt] = Car({\r\n//             carId: carCnt,\r\n//             owner: msg.sender,\r\n//             model: _model\r\n//         });\r\n//         carCnt += 1;\r\n//     }\r\n\r\n//     function decrementCounter() public {\r\n//         delete cars[carCnt - 1];\r\n//         carCnt -= 1;\r\n//     }\r\n\r\n//     function getCount() public view returns (uint256) {\r\n//         return carCnt;\r\n//     }\r\n\r\n//     function getCar(uint256 _i) public view returns (Car memory) {\r\n//         return cars[_i];\r\n//     }\r\n\r\n//     function getAllCar() public view returns (Car[] memory) {\r\n//         Car[] memory ret = new Car[](carCnt);\r\n//         for (uint256 i = 0; i < carCnt; i++) {\r\n//             ret[i] = cars[i];\r\n//         }\r\n//         return ret;\r\n//     }\r\n// }",
  "sourcePath": "C:\\Users\\kimminjeong\\Desktop\\0512-1\\contracts\\CarSharing.sol",
  "compiler": {
    "name": "solc",
    "version": "0.8.19+commit.7dd6d404.Emscripten.clang"
  },
  "schemaVersion": "3.4.13",
  "updatedAt": "2023-05-20T15:43:02.233Z",
  "networkType": "ethereum",
  "devdoc": {
    "kind": "dev",
    "methods": {},
    "version": 1
  },
  "userdoc": {
    "kind": "user",
    "methods": {},
    "version": 1
  }
}