{
  "contractName": "CarSharing",
  "abi": [
    {
      "inputs": [
        {
          "internalType": "int256",
          "name": "",
          "type": "int256"
        }
      ],
      "name": "cars",
      "outputs": [
        {
          "internalType": "int256",
          "name": "carId",
          "type": "int256"
        },
        {
          "internalType": "address",
          "name": "owner",
          "type": "address"
        }
      ],
      "stateMutability": "view",
      "type": "function",
      "constant": true
    },
    {
      "inputs": [],
      "name": "incrementCounter",
      "outputs": [],
      "stateMutability": "nonpayable",
      "type": "function"
    },
    {
      "inputs": [],
      "name": "decrementCounter",
      "outputs": [],
      "stateMutability": "nonpayable",
      "type": "function"
    },
    {
      "inputs": [],
      "name": "getCount",
      "outputs": [
        {
          "internalType": "int256",
          "name": "",
          "type": "int256"
        }
      ],
      "stateMutability": "view",
      "type": "function",
      "constant": true
    },
    {
      "inputs": [
        {
          "internalType": "int256",
          "name": "_i",
          "type": "int256"
        }
      ],
      "name": "getCar",
      "outputs": [
        {
          "components": [
            {
              "internalType": "int256",
              "name": "carId",
              "type": "int256"
            },
            {
              "internalType": "address",
              "name": "owner",
              "type": "address"
            }
          ],
          "internalType": "struct CarSharing.Car",
          "name": "",
          "type": "tuple"
        }
      ],
      "stateMutability": "view",
      "type": "function",
      "constant": true
    }
  ],
  "bytecode": "0x608060405260008055600060015534801561001957600080fd5b50610568806100296000396000f3fe608060405234801561001057600080fd5b50600436106100575760003560e01c806336c4f6981461005c5780635b34b9661461008c5780636febaec514610096578063a87d942c146100c7578063f5c5ad83146100e5575b600080fd5b61007660048036038101906100719190610353565b6100ef565b60405161008391906103ff565b60405180910390f35b61009461017c565b005b6100b060048036038101906100ab9190610353565b61022d565b6040516100be929190610438565b60405180910390f35b6100cf610271565b6040516100dc9190610461565b60405180910390f35b6100ed61027b565b005b6100f76102e8565b60026000838152602001908152602001600020604051806040016040529081600082015481526020016001820160009054906101000a900473ffffffffffffffffffffffffffffffffffffffff1673ffffffffffffffffffffffffffffffffffffffff1673ffffffffffffffffffffffffffffffffffffffff16815250509050919050565b604051806040016040528060015481526020013373ffffffffffffffffffffffffffffffffffffffff168152506002600060015481526020019081526020016000206000820151816000015560208201518160010160006101000a81548173ffffffffffffffffffffffffffffffffffffffff021916908373ffffffffffffffffffffffffffffffffffffffff160217905550905050600180600082825461022491906104ab565b92505081905550565b60026020528060005260406000206000915090508060000154908060010160009054906101000a900473ffffffffffffffffffffffffffffffffffffffff16905082565b6000600154905090565b600260006001805461028d91906104ef565b81526020019081526020016000206000808201600090556001820160006101000a81549073ffffffffffffffffffffffffffffffffffffffff0219169055505060018060008282546102df91906104ef565b92505081905550565b604051806040016040528060008152602001600073ffffffffffffffffffffffffffffffffffffffff1681525090565b600080fd5b6000819050919050565b6103308161031d565b811461033b57600080fd5b50565b60008135905061034d81610327565b92915050565b60006020828403121561036957610368610318565b5b60006103778482850161033e565b91505092915050565b6103898161031d565b82525050565b600073ffffffffffffffffffffffffffffffffffffffff82169050919050565b60006103ba8261038f565b9050919050565b6103ca816103af565b82525050565b6040820160008201516103e66000850182610380565b5060208201516103f960208501826103c1565b50505050565b600060408201905061041460008301846103d0565b92915050565b6104238161031d565b82525050565b610432816103af565b82525050565b600060408201905061044d600083018561041a565b61045a6020830184610429565b9392505050565b6000602082019050610476600083018461041a565b92915050565b7f4e487b7100000000000000000000000000000000000000000000000000000000600052601160045260246000fd5b60006104b68261031d565b91506104c18361031d565b9250828201905082811215600083121683821260008412151617156104e9576104e861047c565b5b92915050565b60006104fa8261031d565b91506105058361031d565b925082820390508181126000841216828213600085121516171561052c5761052b61047c565b5b9291505056fea264697066735822122084efd59c084837ea57aa887e02f21d2a00d0da80fc130c6a1b48549a92cbb9a364736f6c63430008130033",
  "immutableReferences": {},
  "source": "// SPDX-License-Identifier: UNLICENSED\r\npragma solidity ^0.8.0;\r\n\r\ncontract CarSharing {\r\n    int private count = 0;\r\n    \r\n    struct Car {\r\n        int carId;\r\n        address owner;\r\n    }\r\n    int private carCnt = 0;\r\n\r\n    mapping(int => Car) public cars;\r\n\r\n    // function addCar() public payable {\r\n    //     cars[carCnt] = Car({\r\n    //         carId: carCnt,\r\n    //         owner: msg.sender\r\n    //     });\r\n    //     carCnt += 1;\r\n    // }\r\n\r\n    function incrementCounter() public {\r\n        cars[carCnt] = Car({\r\n            carId: carCnt,\r\n            owner: msg.sender\r\n        });\r\n        carCnt += 1;\r\n    }\r\n\r\n    function decrementCounter() public {\r\n        delete cars[carCnt - 1];\r\n        carCnt -= 1;\r\n    }\r\n\r\n    function getCount() public view returns (int) {\r\n        return carCnt;\r\n    }\r\n\r\n    function getCar(int _i) public view returns (Car memory) {\r\n        return cars[_i];\r\n    }\r\n}",
  "sourcePath": "C:\\Users\\kimminjeong\\Desktop\\0512-1\\contracts\\CarSharing.sol",
  "compiler": {
    "name": "solc",
    "version": "0.8.19+commit.7dd6d404.Emscripten.clang"
  },
  "schemaVersion": "3.4.13",
  "updatedAt": "2023-05-12T05:07:24.473Z",
  "networkType": "ethereum",
  "devdoc": {
    "kind": "dev",
    "methods": {},
    "version": 1
  },
  "userdoc": {
    "kind": "user",
    "methods": {},
    "version": 1
  }
}